S01200004543555F4D61737465722E737265636A
S11300000C942A000C9447000C9447000C9447006D
S11300100C9447000C9447000C9447000C94470040
S11300200C9447000C9447000C9447000C94F50280
S11300300C9447000C9447000C9447000C94470020
S11300400C9447000C9447000C9447000C94470010
S11300500C94470011241FBECFE5D8E0DEBFCDBF0E
S113006011E0A0E6B0E0E6E1FFE002C005900D92E9
S1130070AA3CB107D9F721E0AAECB1E001C01D9276
S1130080A83FB207E1F70E9468070C9489070C9413
S11300900000CF93833259F19091D701993038F50C
S11300A0C82F6AE287E690E00E9443052091D701B9
S11300B02C9FC0011124092E000CAA0BBB0B4091EC
S11300C0D3015091D4016091D5017091D601840F70
S11300D0951FA61FB71F8093D3019093D401A093BB
S11300E0D501B093D6012F5F2093D70120C0809112
S11300F0CB018823A1F08091CF019091D001A091F0
S1130100D101B091D201892B8A2B8B2B21F486E06B
S11301108093CA0107C087E08093CA0103C082E0CC
S11301208093CA011092F70181E08093F301CF918B
S11301300895CF93C82F682F80E190E00E94ED02CC
S113014087E690E00E94600523E730E040E060E04D
S113015087E690E00E94BC056C2F606387E690E020
S11301600E94430522E930E040E062E087E690E047
S11301700E94BC051092D7011092D3011092D401B1
S11301801092D5011092D60181E08093F70110926C
S1130190CA01CF91089540E063E087E690E00E94B1
S11301A064056091CD01606387E690E00E94430599
S11301B041E063E087E690E00E9464056091CE012F
S11301C0606387E690E00E9443058091CD0186300C
S11301D0A1F48091CE01811110C08091CC010E94C4
S11301E079030E9485031092F40160E080E190E0BD
S11301F00E94ED0280E00E9499008091CE018F5F01
S11302008093CE018A3038F08091CD018F5F809346
S1130210CD011092CE0108956091D30189E090E060
S11302200E94ED028091D3019091D401A091D50157
S1130230B091D601692F7A2F8B2F99278AE090E00D
S11302400E94ED028091D3019091D401A091D50137
S1130250B091D601BD01882799278BE090E00E94D8
S1130260ED028091D3019091D401A091D501B09178
S1130270D6016B2F7727882799278CE090E00E947E
S1130280ED0208958091F6018823E1F087E690E07D
S11302900E94600522EA30E040E060E087E690E0FA
S11302A00E94BC051092CA011092CF011092D00195
S11302B01092D1011092D20181E08093CB018093FE
S11302C0F301089587E690E00E9460052DEB30E08D
S11302D040E060E087E690E00E94BC052FE38DE0FB
S11302E093E0215080409040E1F700C0000081E09D
S11302F08093F5010895CF92DF92EF92FF920F93CE
S11303001F93CF93DF9300D000D000D0CDB7DEB7DA
S11303101092F3018091CA01833009F456C028F485
S1130320882369F08230E9F013C1863009F4A3C050
S1130330873009F4C4C0843009F00AC168C010923F
S1130340D3011092D4011092D5011092D6011092CB
S1130350D70189E490E00E94E00481E08093F701F2
S1130360F7C081E08093F30189E090E00E94E60207
S1130370182F8AE090E00E94E602082F8BE090E0BC
S11303800E94E602C82ED12CE12CF12C7601DD244A
S1130390CC24D02AC12A8CE090E00E94E602F82AFC
S11303A08091D3019091D401A091D501B091D6014F
S11303B08C159D05AE05BF0521F483E08093CA0129
S11303C0C7C084E08093CA01C3C087E690E00E945E
S11303D0600528ED30E040E060E087E690E00E94B0
S11303E0BC052FE38DE093E0215080409040E1F77D
S11303F000C0000081E08093F5018093F601109223
S1130400F70160E080E190E00E94ED02A1C080E18C
S113041090E00E94E602833028F48F5F19F00E9476
S1130420990096C01092F70187E690E00E9460055B
S113043027EE30E040E060E087E690E00E94BC05F3
S113044086E0EDE6F0E0DE01119601900D928A95CA
S1130450E1F760E080E00E9434036CEC71E0CE01CF
S113046001960E943F0381E08093F4011092CE0133
S11304701092CD016DC08091D3019091D401A091CF
S1130480D501B091D6018093CF019093D001A09370
S1130490D101B093D2011092D3011092D4011092E1
S11304A0D5011092D6011092D70140E063E087E6AF
S11304B090E00E94640581E08093F70149C081E0E7
S11304C08093F5011092CB014091CF015091D0015E
S11304D06091D1017091D2018091D3019091D401A6
S11304E0A091D501B091D601481759076A077B0737
S11304F0D1F41092F60187E690E00E9460050E9414
S11305000C0122E131E040E060E087E690E00E94E7
S1130510BC052FE38DE093E0215080409040E1F74B
S113052000C0000015C087E690E00E9460052FE23D
S113053031E040E060E087E690E00E94BC052FE3F4
S11305408DE093E0215080409040E1F700C000002E
S113055026960FB6F894DEBF0FBECDBFDF91CF91C4
S11305601F910F91FF90EF90DF90CF9008958091AD
S1130570F601813091F087E690E00E94600525E560
S113058031E040E060E087E690E00E94BC05109214
S1130590CA0181E08093F301089587E690E00E9408
S11305A060052DE731E040E060E087E690E00E94DE
S11305B0BC052FE986E891E0215080409040E1F7A6
S11305C000C0000081E08093F5010895E199FECF19
S11305D09FBB8EBBE09A8DB30895E199FECF9FBB7C
S11305E08EBB6DBBE29AE19A08951F920F920FB6EB
S11305F00F9211248F939F93EF93FF93CF93DF93E5
S11306001F92CDB7DEB7198289818330F8F48981CE
S113061090E0FC01EE0FFF1FE80FF91FEE0FFF1F24
S1130620E152FE4F8381882359F0E981F0E0EE0F17
S1130630FF1FE752FE4F8081918101979183808350
S113064089818F5F89838981833008F389EF82BF31
S11306500F90DF91CF91FF91EF919F918F910F9028
S11306600FBE0F901F90189589B7816089BF83B71B
S1130670836083BF89EF82BF1092D8010895EF92FF
S1130680FF920F931F93CF93DF93EC018091D801D6
S1130690282F30E0488159817901EE0CFF1CD701E5
S11306A0A20FB31FAA0FBB1FA152BE4F11965C939A
S11306B04E939B8113969C931397870107521E4F69
S11306C0F801518340839A8112969C931297FD01FD
S11306D02C813D813583248391E0980F9093D80138
S11306E0FB018083DF91CF911F910F91FF90EF90D9
S11306F0089590E0FC01EE0FFF1FE80FF91FEE0FC5
S1130700FF1FE152FE4F1382089589B78E7F89BF80
S11307100895AF92BF92CF92DF92EF92FF920F9320
S11307201F93CF93DF93CFEDD1E009ED11E00F2EAE
S1130730F1EFEF2EF1E0FF2EF02D6E018B81813071
S113074099F45801D8018D919C91892B69F4EC811D
S1130750FD8109958A81811101C01B82F601808186
S11307609181D5018D939C9326960E5F1F4FCE15D4
S1130770DF0519F7DF91CF911F910F91FF90EF9053
S1130780DF90CF90BF90AF900895EF92FF920F93B8
S11307901F93CF93DF937B01EC018C010C5F1F4F00
S11307A060E089910E94E30561E08B810E94E3058A
S11307B0C017D107A9F7F092F201E092F101DF919D
S11307C0CF911F910F91FF90EF9008952F923F9238
S11307D04F925F926F927F928F929F92AF92BF924D
S11307E0CF92DF92EF92FF920F931F93CF93DF93F9
S11307F000D01F92CDB7DEB75C0104969B838A8339
S113080040E063E00E941C0741E064E0C5010E94EF
S11308101C0719828981843008F0BCC0212C89818D
S1130820F501E80FF11D80810E94E506811181C068
S11308306090F1017090F201450194E0890E911CE1
S1130840322C412C41E063E08A819B810E941C0789
S1130850622DF40181914F010E9464066501E12C2F
S1130860F12C5E2CFFEFEF1AFF0AF60181916F0164
S11308700E94E50681114DC0860101501109F8015D
S113088080810E94E5068823D1F3F1E05F16C1F070
S11308905F1638F082E0581611F193E0591671F1A1
S11308A038C0442009F44DC0E1E04E1609F44EC0AE
S11308B0F2E04F12D6CF0F2EF3E33F2EF02DD1CF1F
S11308C0442009F448C081E0481609F449C092E084
S11308D04912C7CF0F2EF6E33F2EF02DC2CF44208E
S11308E009F443C0E1E04E1609F444C0F2E04F12AB
S11308F0B8CF0F2EF9E33F2EF02DB3CF442009F4E7
S11309003EC081E0481609F43FC092E0491205C098
S113091009C0E3E0EE1508F0A4CF4394F3E04F12CE
S113092091CF04C00F2EF3E23F2EF02D832DF3015F
S1130930099589818F5F89838981843008F46FCF19
S113094029C00F2EF1E33F2EF02D8BCF0F2EF2E3B3
S11309503F2EF02D86CF0F2EF4E33F2EF02D81CFC6
S11309600F2EF5E33F2EF02D7CCF0F2EF7E33F2E15
S1130970F02D77CF0F2EF8E33F2EF02D72CF0F2EF0
S1130980FAE23F2EF02D04C00F2EF0E33F2EF02D9F
S1130990439458CF0F900F900F90DF91CF911F91F8
S11309A00F91FF90EF90DF90CF90BF90AF909F900A
S11309B08F907F906F905F904F903F902F9008950D
S11309C09093F2018093F1010895CF92DF92EF9218
S11309D0FF920F931F93CF93DF936C018C01C0E0C0
S11309E0D0E0E62EF12CC7010C2E02C09595879518
S11309F00A94E2F780FF06C061E0F80180810E945A
S1130A00640605C060E0F80180810E9464062196B6
S1130A100F5F1F4FC430D10531F760E0F6018481C8
S1130A200E94640689EF90E00197F1F700C000008E
S1130A3061E0F60184810E946406DF91CF911F91E9
S1130A400F91FF90EF90DF90CF9008951F93CF9375
S1130A50DF93EC01162F60E08D810E946406612F04
S1130A6062956F70CE010E94E504612FCE010E9451
S1130A70E50483ED90E30197F1F700C00000DF91F6
S1130A80CF911F9108951F93CF93DF93EC01162FFD
S1130A9061E08D810E946406612F62956F70CE01C2
S1130AA00E94E504612FCE010E94E50483ED90E3EA
S1130AB00197F1F700C00000DF91CF911F910895D5
S1130AC061E00E9426050895611105C0642F6068E5
S1130AD00E9426050895613029F4642F606C0E94F9
S1130AE026050895623029F4642F60690E94260562
S1130AF00895633021F4642F606D0E9426050895E3
S1130B00EF92FF920F931F93CF93DF938C01EC012D
S1130B107C0184E0E80EF11C61E089910E94E30508
S1130B20CE15DF05C9F761E0F80185810E94E30570
S1130B3061E0F80184810E94E30562E0C8010E943B
S1130B40260568E2C8010E94260566E0C8010E94E5
S1130B50260540E060E0C8010E9464056FE0C8011A
S1130B600E942605C8010E946005DF91CF911F9164
S1130B700F91FF90EF900895DF92EF92FF920F9301
S1130B801F93CF93DF938C01F62ED22EE32E0E9477
S1130B906405CD2DDE2D0CC06A3239F4F39440E0A7
S1130BA06F2DC8010E94640503C0C8010E9443055B
S1130BB069916111F1CFDF91CF911F910F91FF9056
S1130BC0EF90DF9008958830E8F461110EC04AB3C5
S1130BD021E030E0B90102C0660F771F8A95E2F781
S1130BE0CB01809584238ABB08954AB321E030E089
S1130BF0B90102C0660F771F8A95E2F7CB01842BF7
S1130C008ABB089598EF980F9830E8F461110EC0EC
S1130C1047B321E030E0B90102C0660F771F9A950F
S1130C20E2F7CB018095842387BB089547B321E085
S1130C3030E0B90102C0660F771F9A95E2F7CB0145
S1130C40842B87BB089590EF980F9830E8F46111D6
S1130C500EC044B321E030E0B90102C0660F771F33
S1130C609A95E2F7CB018095842384BB089544B31D
S1130C7021E030E0B90102C0660F771F9A95E2F7D0
S1130C80CB01842B84BB089588518830E0F4611132
S1130C900EC041B321E030E0B90102C0660F771FF6
S1130CA08A95E2F7CB018095842381BB089541B3F3
S1130CB021E030E0B90102C0660F771F8A95E2F7A0
S1130CC0CB01842B81BB08958830E8F461110EC0F8
S1130CD04BB321E030E0B90102C0660F771F8A955B
S1130CE0E2F7CB01809584238BBB08954BB321E0BD
S1130CF030E0B90102C0660F771F8A95E2F7CB0195
S1130D00842B8BBB089598EF980F9830E8F4611109
S1130D100EC048B321E030E0B90102C0660F771F6E
S1130D209A95E2F7CB018095842388BB089548B354
S1130D3021E030E0B90102C0660F771F9A95E2F70F
S1130D40CB01842B88BB089590EF980F9830E8F47A
S1130D5061110EC045B321E030E0B90102C0660F55
S1130D60771F9A95E2F7CB018095842385BB08957C
S1130D7045B321E030E0B90102C0660F771F9A95B0
S1130D80E2F7CB01842B85BB089588518830E0F4C9
S1130D9061110EC042B321E030E0B90102C0660F18
S1130DA0771F8A95E2F7CB018095842382BB08954F
S1130DB042B321E030E0B90102C0660F771F8A9583
S1130DC0E2F7CB01842B82BB0895883058F429B311
S1130DD030E0A90102C0559547958A95E2F7CA010A
S1130DE08170089528EF280F283048F486B390E0E6
S1130DF002C0959587952A95E2F78170089520EFB2
S1130E00280F283048F483B390E002C09595879565
S1130E102A95E2F78170089528EE280F283050F4BF
S1130E2090B3892F90E002C0959587952A95E2F7B3
S1130E308170089580E00895FF920F931F93CF93DC
S1130E40DF93662381F0F42EEC016150062F10E04D
S1130E500F5F1F4F080F191F6F2D89910E946406A1
S1130E60C017D107C9F7DF91CF911F910F91FF9060
S1130E700895813321F060F0853330F008951092A5
S1130E80F7010E94B70208951092F7010E944201EF
S1130E90089569E377E080E690E00E94C50387E661
S1130EA090E00E948005089587E690E00E94600526
S1130EB02EE831E040E060E087E690E00E94BC0567
S1130EC089E397E00E94E00481E08093F7010895AC
S1130ED00E9449070E94540778948091F70188235F
S1130EE021F080E690E00E94E6038091F5018823DA
S1130EF021F01092F5010E9454078091F4018111B0
S1130F000E9489038091F301882339F30E947B01B5
S1090F10E4CFF894FFCFCA
S1130F161213141516171A000102030405E8030137
S1130F2601CB0070617373776F72642077726F6E92
S1130F3667652A4E756D62657220747269616C7399
S1130F463A00456E7465722070617373776F7264CC
S1130F562A00656E746572204E65772A5061737334
S1130F66776F726420706C656173652A00656E74B0
S1130F7665722073797374656D2A66697273742059
S1130F86706C656173652A0070617373776F726440
S1130F9620526967687400796F75206578636565A2
S1130FA66465642A6C696D6974206F66205472697D
S1130FB6616C732A776169742061206D696E75743A
S1130FC6650070617373776F72642A6368616E6714
S1130FD6652A7375636365737366756C6C790070E3
S1130FE6617373776F72642A446F6E2774206D6120
S1130FF67463682A706C65617365205472792A611A
S11310066761696E00656E746572207061737377CB
S11310166F72642A7072657373272327746F2A6547
S11310266E642D70617373776F72642A00737973BB
S113103674656D206973206C6F6767656400312D74
S1131046456E7465722073797374656D2A322D55F5
S113105670646174652073797374656D2A332D52D7
S1131066656D6F746520636F6E74726F6C2A342DB0
S10D107673657474696E67730000FB
S9030000FC
