S01200004543555F4D61737465722E737265636A
S11300000C942A000C9447000C9447000C9447006D
S11300100C9447000C9447000C9447000C94470040
S11300200C9447000C9447000C9447000C94190757
S11300300C9447000C94A8040C9481040C9447007D
S11300400C9447000C9447000C9447000C94470010
S11300500C94470011241FBECFE5D8E0DEBFCDBF0E
S113006012E0A0E6B0E0E8E3F5E102C005900D92ED
S1130070AE36B107D9F726E0AEE6B2E001C01D9274
S1130080A83AB207E1F70E946F0A0C949A0A0C94FA
S11300900000CF93833259F190917B02993038F567
S11300A0C82F6AE28DE690E00E949B0920917B02B2
S11300B02C9FC0011124092E000CAA0BBB0B4091EC
S11300C07702509178026091790270917A02840FDC
S11300D0951FA61FB71F8093770290937802A09371
S11300E07902B0937A022F5F20937B0220C0809123
S11300F06F028823A1F08091730290917402A09101
S11301007502B0917602892B8A2B8B2B21F486E021
S113011080936E0207C087E080936E0203C082E082
S113012080936E021092A70681E08093A306CF917C
S11301300895CF93C82F682F80E190E00E941107A3
S11301408DE690E00E94B80923E830E040E060E0EA
S11301508DE690E00E94140A6C2F60638DE690E0B7
S11301600E949B0922EA30E040E062E08DE690E0E4
S11301700E94140A10927B02109277021092780265
S11301801092790210927A0281E08093A70610926D
S11301906E02CF91089540E063E08DE690E00E9406
S11301A0BC096091710260638DE690E00E949B0936
S11301B041E063E08DE690E00E94BC096091720228
S11301C060638DE690E00E949B0980917102863005
S11301D0A1F480917202811110C0809170020E947A
S11301E0CC070E94D5071092A40660E080E190E05D
S11301F00E94110780E00E949900809172028F5F33
S1130200809372028A3038F0809171028F5F8093FC
S113021071021092720208956091770289E090E071
S11302200E9411078091770290917802A09179023F
S1130230B0917A02692F7A2F8B2F99278AE090E068
S11302400E9411078091770290917802A09179021F
S1130250B0917A02BD01882799278BE090E00E9433
S113026011078091770290917802A0917902B09160
S11302707A026B2F7727882799278CE090E00E94D9
S1130280110708958091A6068823E1F08DE690E099
S11302900E94B80922EB30E040E060E08DE690E097
S11302A00E94140A10926E02109273021092740249
S11302B0109275021092760281E080936F0280930F
S11302C0A30608958DE690E00E94B8092DEC30E075
S11302D040E060E08DE690E00E94140A2FE38DE098
S11302E093E0215080409040E1F700C0000081E09D
S11302F08093A5060895CF92DF92EF92FF920F9319
S11303001F93CF93DF93CDB7DEB728970FB6F8943A
S1130310DEBF0FBECDBF1092A30680916E02833064
S113032009F456C028F4882369F08230E9F013C137
S1130330863009F4A3C0873009F4C4C0843009F0BE
S11303400AC168C010927702109278021092790262
S113035010927A0210927B0289E490E00E9438099C
S113036081E08093A706F7C081E08093A30689E02B
S113037090E00E940A07182F8AE090E00E940A0782
S1130380082F8BE090E00E940A07C82ED12CE12CA4
S1130390F12C7601DD24CC24D02AC12A8CE090E013
S11303A00E940A07F82A8091770290917802A0911E
S11303B07902B0917A028C159D05AE05BF0521F432
S11303C083E080936E02C7C084E080936E02C3C052
S11303D08DE690E00E94B80928EE30E040E060E04D
S11303E08DE690E00E94140A2FE38DE093E0215003
S11303F080409040E1F700C0000081E08093A506B2
S11304008093A6061092A70660E080E190E00E9427
S11304101107A1C080E190E00E940A07833028F40C
S11304208F5F19F00E94990096C01092A7068DE67E
S113043090E00E94B80927EF30E040E060E08DE6EC
S113044090E00E94140A88E0E3E7F0E0DE011196F0
S113045001900D928A95E1F760E080E00E946307C5
S113046060E772E0CE0101960E946F0781E08093FD
S1130470A40610927202109271026DC080917702EC
S113048090917802A0917902B0917A0280937302DC
S113049090937402A0937502B0937602109277023F
S11304A0109278021092790210927A0210927B02D2
S11304B040E063E08DE690E00E94BC0981E0809317
S11304C0A70649C081E08093A50610926F0240916F
S11304D0730250917402609175027091760280915A
S11304E0770290917802A0917902B0917A0248172C
S11304F059076A077B07D1F41092A6068DE690E0AF
S11305000E94B8090E940C0122E231E040E060E060
S11305108DE690E00E94140A2FE38DE093E02150D1
S113052080409040E1F700C0000015C08DE690E0E7
S11305300E94B8092FE331E040E060E08DE690E0EE
S11305400E94140A2FE38DE093E0215080409040F4
S1130550E1F700C0000028960FB6F894DEBF0FBE86
S1130560CDBFDF91CF911F910F91FF90EF90DF905E
S1130570CF9008958091A606813091F08DE690E0A9
S11305800E94B80925E631E040E060E08DE690E0A5
S11305900E94140A10926E0281E08093A3060895CB
S11305A08DE690E00E94B8092DE831E040E060E07B
S11305B08DE690E00E94140A2FE986E891E021502C
S11305C080409040E1F700C0000081E08093A506E0
S11305D00895FC011DB82DB1908130E8939FA001CE
S11305E011248581822B282F242B918140E2949F12
S11305F0C0011124822B928140E1949F9001112427
S1130600282B8381880F880F880F282B8481880FDB
S1130610880F282B2DB96E9A08958FB9779BFECF3A
S113062008958830E8F461110EC04AB321E030E047
S1130630B90102C0660F771F8A95E2F7CB01809556
S113064084238ABB08954AB321E030E0B90102C093
S1130650660F771F8A95E2F7CB01842B8ABB089536
S113066098EF980F9830E8F461110EC047B321E079
S113067030E0B90102C0660F771F9A95E2F7CB010B
S11306808095842387BB089547B321E030E0B90106
S113069002C0660F771F9A95E2F7CB01842B87BBC4
S11306A0089590EF980F9830E8F461110EC044B3A8
S11306B021E030E0B90102C0660F771F9A95E2F796
S11306C0CB018095842384BB089544B321E030E0BA
S11306D0B90102C0660F771F9A95E2F7CB01842B0C
S11306E084BB089588518830E0F461110EC041B391
S11306F021E030E0B90102C0660F771F8A95E2F766
S1130700CB018095842381BB089541B321E030E07F
S1130710B90102C0660F771F8A95E2F7CB01842BDB
S113072081BB08958830E8F461110EC04BB321E019
S113073030E0B90102C0660F771F8A95E2F7CB015A
S1130740809584238BBB08954BB321E030E0B9013D
S113075002C0660F771F8A95E2F7CB01842B8BBB0F
S1130760089598EF980F9830E8F461110EC048B3DB
S113077021E030E0B90102C0660F771F9A95E2F7D5
S1130780CB018095842388BB089548B321E030E0F1
S1130790B90102C0660F771F9A95E2F7CB01842B4B
S11307A088BB089590EF980F9830E8F461110EC05B
S11307B045B321E030E0B90102C0660F771F9A9576
S11307C0E2F7CB018095842385BB089545B321E0EE
S11307D030E0B90102C0660F771F9A95E2F7CB01AA
S11307E0842B85BB089588518830E0F461110EC0D4
S11307F042B321E030E0B90102C0660F771F8A9549
S1130800E2F7CB018095842382BB089542B321E0B3
S113081030E0B90102C0660F771F8A95E2F7CB0179
S1130820842B82BB0895883058F429B330E0A901A1
S113083002C0559547958A95E2F7CA0181700895DB
S113084028EF280F283048F486B390E002C095952D
S113085087952A95E2F78170089520EF280F2830B4
S113086048F483B390E002C0959587952A95E2F702
S11308708170089528EE280F283050F490B3892F02
S113088090E002C0959587952A95E2F781700895C6
S113089080E00895FF920F931F93CF93DF93662315
S11308A081F0F42EEC016150062F10E00F5F1F4F12
S11308B0080F191F6F2D89910E949203C017D10749
S11308C0C9F7DF91CF911F910F91FF90089560E0D8
S11308D088E10E94110361E089E10E9411030895F7
S11308E061E08CE00E94110361E08DE00E9411033D
S11308F060E08EE00E94110361E08FE00E9411032A
S113090008951F920F920FB60F9211242F933F93C5
S11309104F935F936F937F938F939F93AF93BF9303
S1130920EF93FF93E0917E02F0917F020995FF918E
S1130930EF91BF91AF919F918F917F916F915F9153
S11309404F913F912F910F900FBE0F901F901895CC
S11309501F920F920FB60F9211242F933F934F9330
S11309605F936F937F938F939F93AF93BF93EF9313
S1130970FF938CB1E0917C02F0917D020995FF9187
S1130980EF91BF91AF919F918F917F916F915F9103
S11309904F913F912F910F900FBE0F901F9018957C
S11309A089E189B98AB188618AB980B5866880BDD0
S11309B0089590937D0280937C02579A089591E064
S11309C0909384022091850230918602A9014F5FA1
S11309D05F4F5093860240938502F901E957FD4F1A
S11309E080830895109286021092850210928402E8
S11309F00895CF93DF93EC010E94F204E0E8F2E063
S1130A0088819981918380838A8182839B81938366
S1130A10811106C00E94D0048FED94E00E94D90495
S1130A20DF91CF910895809184028823A9F01092D8
S1130A3084026091850270918602FB01EA57FD4FA2
S1130A40908180918302981307C0E0918002F09115
S1130A50810287E892E0099508959091760699239A
S1130A6041F0109276068093780681E08093A20686
S1130A7008958093770681E08093760608958091A7
S1130A807406909175068917D8F5209172063091F5
S1130A907306E7E7F6E0D901A80FB11D9C91908396
S1130AA091E0980FD901A90FB11D9C9191831092E7
S1130AB06F0692E0980FF901E90FF11D9081990FEB
S1130AC09056492F440F440F940F90936F0694E06F
S1130AD0980F9093740690916F068D5FF901E80F5B
S1130AE0F11D8081890F805380936F0610927106E7
S1130AF01092700681E08093A2068093A406089564
S1130B0080E00E94CC071092A4068DE690E00E943B
S1130B10B8092EE931E040E060E08DE690E00E9403
S1130B20140A089580916F06815080936F0688237C
S1130B3091F081E08093A206809171068F5F80938B
S1130B4071068A3078F0809170068F5F809370060A
S1130B50109271060895809174068F5F80937406D5
S1130B600E943F0508951092A10621E02093A20659
S1130B7061506093750690937306809372060E9489
S1130B803F058DE690E00E94B8092EEA31E040E08E
S1130B9060E08DE690E00E94140A25EB31E040E02D
S1130BA061E08DE690E00E94140A2CEB31E040E015
S1130BB062E08DE690E00E94140A60E080E00E940A
S1130BC0630708951F93CF93DF93CDB7DEB72C97B8
S1130BD00FB6F894DEBF0FBECDBF182F1092A70634
S1130BE080E690E00E94E902113309F58DE690E079
S1130BF00E94B8092EEA31E040E060E08DE690E022
S1130C000E94140A25EB31E040E061E08DE690E0BB
S1130C100E94140A109279060E94D0048DE295E095
S1130C200E94D90460E08CE00E94920344C0123315
S1130C3051F58DE690E00E94B80922EC31E040E0E5
S1130C4060E08DE690E00E94140A11E010937906AA
S1130C5083EB95E09A8789871B868AE28C87CE018D
S1130C6009960E94F9041093A10688E0EBE7F0E0EE
S1130C70DE01119601900D928A95E1F7CE0101965D
S1130C800E94A90718C08DE690E00E94B80920EDE3
S1130C9031E040E060E08DE690E00E94140A2FED20
S1130CA082E292E0215080409040E1F700C00000D1
S1130CB081E08093A5062C960FB6F894DEBF0FBE94
S1130CC0CDBFDF91CF911F9108958DE690E00E94F2
S1130CD0B8098091A606882391F02DED31E040E01B
S1130CE060E08DE690E00E94140A62EE75E086E60C
S1130CF090E00E941D0881E08093A70608952DECE2
S1130D0030E040E060E08DE690E00E94140A08952F
S1130D101092A20680917706843649F118F4813640
S1130D20B1F145C0833799F0873709F040C026E018
S1130D3032E046E060E08DE690E00E94140A87E726
S1130D400E940D03809178060E940D033EC02FE09F
S1130D5032E046E060E08DE690E00E94140A83E70A
S1130D600E940D03809178060E940D032EC028E195
S1130D7032E046E060E08DE690E00E94140A84E6EA
S1130D800E940D03809178060E940D031EC021E28B
S1130D9032E046E060E08DE690E00E94140A81E6CD
S1130DA00E940D03809178060E940D030EC080E01E
S1130DB00E940D0380E00E940D032AE232E046E027
S1130DC060E08DE690E00E94140A46E061E08DE662
S1130DD090E00E94BC09609178068DE690E00E9444
S1130DE09B09809179068130A1F445E062E08DE6AB
S1130DF090E00E94BC0960917006605D8DE690E011
S1130E000E949B0960917106605D8DE690E00E94EE
S1130E109B090895E199FECF9FBB8EBBE09A8DB3E9
S1130E200895E199FECF9FBB8EBB6DBBE29AE19A18
S1130E3008951F920F920FB60F9211248F939F93D0
S1130E40AF93BF93EF93FF93CF93DF931F92CDB7ED
S1130E50DEB719828981833030F5E981F0E0EE0F45
S1130E60FF1FEE0FFF1FEE0FFF1FE957F94F85819C
S1130E70882399F0E981F0E0EE0FFF1FEE0FFF1FCA
S1130E80E558F94F80819181A281B3810197A1092D
S1130E90B10980839183A283B38389818F5F89831E
S1130EA089818330D0F289EF82BF0F90DF91CF9197
S1130EB0FF91EF91BF91AF919F918F910F900FBED2
S1130EC00F901F90189589B7816089BF83B783609D
S1130ED083BF89EF82BF81E080937A0608950F93E0
S1130EE01F93CF93DF93EC018B0180917A06282F17
S1130EF030E0488159816A817B81F901EE0FFF1F3F
S1130F00EE0FFF1FEE0FFF1FE957F94F4083518388
S1130F10628373839D819583220F331F220F331FB6
S1130F20D901A558B94F4D935D936D937C93139755
S1130F309C8194832E813F813783268391E0980F8F
S1130F4090937A06F8018083DF91CF911F910F91DE
S1130F500895DC014D915D916D917C911397E7E8C3
S1130F60F6E0408351836283738315968C911597C1
S1130F70858340937B0650937C0660937D06709333
S1130F807E0614968C911497848316968D919C9169
S1130F90179797838683089528E0829FC0011124C0
S1130FA0FC01E957F94F1582089589B78E7F89BFEF
S1130FB00895AF92BF92CF92DF92EF92FF920F9378
S1130FC01F93CF93DF93C7E8D6E00BE716E00F2E0D
S1130FD0FFE9EF2EF6E0FF2EF02D6E018D818130BA
S1130FE0D9F45801F80180819181A281B381892BC0
S1130FF08A2B8B2B89F4EE81FF8109958C818111D9
S113100001C01D82F60180819181A281B381F50125
S113101080839183A283B38328960C5F1F4FCE15E0
S1131020DF05D9F6DF91CF911F910F91FF90EF90DB
S1131030DF90CF90BF90AF900895EF92FF920F93FF
S11310401F93CF93DF937B01EC018C010C5F1F4F47
S113105060E089910E94110361E08B810E94110379
S1131060C017D107A9F7F092A006E0929F06DF917E
S1131070CF911F910F91FF90EF9008952F923F927F
S11310804F925F926F927F928F929F92AF92BF9294
S1131090CF92DF92EF92FF920F931F93CF93DF9340
S11310A000D01F92CDB7DEB75C0104969B838A8380
S11310B040E063E00E944A0441E064E0C5010E940C
S11310C04A0419828981843008F0BCC0212C8981AA
S11310D0F501E80FF11D80810E941304811181C084
S11310E060909F067090A006450194E0890E911CC3
S11310F0322C412C41E063E08A819B810E944A04A6
S1131100622DF40181914F010E9492036501E12C4B
S1131110F12C5E2CFFEFEF1AFF0AF60181916F01AB
S11311200E94130481114DC0860101501109F80178
S113113080810E9413048823D1F3F1E05F16C1F08B
S11311405F1638F082E0581611F193E0591671F1E8
S113115038C0442009F44DC0E1E04E1609F44EC0F5
S1131160F2E04F12D6CF0F2EF3E33F2EF02DD1CF66
S1131170442009F448C081E0481609F449C092E0CB
S11311804912C7CF0F2EF6E33F2EF02DC2CF4420D5
S113119009F443C0E1E04E1609F444C0F2E04F12F2
S11311A0B8CF0F2EF9E33F2EF02DB3CF442009F42E
S11311B03EC081E0481609F43FC092E0491205C0E0
S11311C009C0E3E0EE1508F0A4CF4394F3E04F1216
S11311D091CF04C00F2EF3E23F2EF02D832DF301A7
S11311E0099589818F5F89838981843008F46FCF61
S11311F029C00F2EF1E33F2EF02D8BCF0F2EF2E3FB
S11312003F2EF02D86CF0F2EF4E33F2EF02D81CF0D
S11312100F2EF5E33F2EF02D7CCF0F2EF7E33F2E5C
S1131220F02D77CF0F2EF8E33F2EF02D72CF0F2E37
S1131230FAE23F2EF02D04C00F2EF0E33F2EF02DE6
S1131240439458CF0F900F900F90DF91CF911F913F
S11312500F91FF90EF90DF90CF90BF90AF909F9051
S11312608F907F906F905F904F903F902F90089554
S11312709093A00680939F060895CF92DF92EF92F9
S1131280FF920F931F93CF93DF936C018C01C0E007
S1131290D0E0E62EF12CC7010C2E02C0959587955F
S11312A00A94E2F780FF06C061E0F80180810E94A1
S11312B0920305C060E0F80180810E9492032196A8
S11312C00F5F1F4FC430D10531F760E0F601848110
S11312D00E94920389EF90E00197F1F700C00000AB
S11312E061E0F60184810E949203DF91CF911F9106
S11312F00F91FF90EF90DF90CF9008951F93CF93BD
S1131300DF93EC01162F60E08D810E949203612F20
S113131062956F70CE010E943D09612FCE010E943B
S11313203D0983EF91E00197F1F700C00000DF91E0
S1131330CF911F9108951F93CF93DF93EC01162F44
S113134061E08D810E949203612F62956F70CE01DE
S11313500E943D09612FCE010E943D0989EF90E072
S11313600197F1F700C00000DF91CF911F9108951C
S113137061E00E947E090895611105C0642F6068D0
S11313800E947E090895613029F4642F606C0E94E4
S11313907E090895623029F4642F60690E947E09F1
S11313A00895633021F4642F606D0E947E090895CE
S11313B0EF92FF920F931F93CF93DF938C01EC0175
S11313C07C0184E0E80EF11C61E089910E94110324
S11313D0CE15DF05C9F761E0F80185810E9411038C
S11313E061E0F80184810E94110362E0C8010E9457
S11313F07E0968E2C8010E947E0966E0C8010E9475
S11314007E0940E060E0C8010E94BC096CE0C801AC
S11314100E947E09C8010E94B809DF91CF911F91F3
S11314200F91FF90EF900895DF92EF92FF920F9348
S11314301F93CF93DF938C01F62ED22EE32E0E94BE
S1131440BC09CD2DDE2D0CC06A3239F4F39440E092
S11314506F2DC8010E94BC0903C0C8010E949B09EA
S113146069916111F1CFDF91CF911F910F91FF909D
S1131470EF90DF9008951092A706833339F08433F8
S113148041F0813341F40E94BA0208950E94650636
S113149008950E94420108956BE37AE086E690E0A5
S11314A00E941D088DE690E00E94D8090E947004F5
S11314B00E94670408958DE690E00E94B80923E332
S11314C032E040E060E08DE690E00E94140A8BE395
S11314D09AE00E94380981E08093A70608950E944B
S11314E04C0A0E945B0A78948091A706882321F015
S11314F086E690E00E943E088091A506882321F0AC
S11315001092A5060E945B0A8091A40681110E9494
S1131510D9078091A30681110E947B018091A206C4
S113152081110E9488068091A1068823E9F20E9415
S10B15301305DACFF894FFCF94
S11315380000010000011213141516171A00010205
S1131548030405E80300000101CB00E803000001DF
S113155801920570617373776F72642077726F6E8E
S113156867652A4E756D62657220747269616C7361
S11315783A00456E7465722070617373776F726494
S11315882A00656E746572204E65772A50617373FC
S1131598776F726420706C656173652A00656E7478
S11315A865722073797374656D2A66697273742021
S11315B8706C656173652A0070617373776F726408
S11315C820526967687400796F752065786365656A
S11315D86465642A6C696D6974206F662054726945
S11315E8616C732A776169742061206D696E757402
S11315F8650070617373776F72642A6368616E67DC
S1131608652A7375636365737366756C6C790070AA
S1131618617373776F72642A446F6E2774206D61E7
S11316287463682A706C65617365205472792A61E1
S11316386761696E00656E74657220706173737793
S11316486F72642A7072657373272327746F2A650F
S11316586E642D70617373776F72642A0073797383
S113166874656D206973206C6F6767656400436FE8
S11316786D6D616E64732046696E69736800537496
S11316886174653A00506F7765723A0054696D6504
S11316983A005761697420436F6D6D616E6473001D
S11316A877726F6E672063686F69636500656E742F
S11316B86572206D6F64652A312D6C6976652063C7
S11316C86F6E74726F6C2A322D6175746F20627537
S11316D8666665722A00666F7277617264200062BA
S11316E861636B776F726400726967687420202085
S11316F8006C6566742020202000737461626C6538
S1131708202000312D456E746572207379737465D9
S11317186D2A322D5570646174652073797374650C
S11317286D2A332D52656D6F746520636F6E747204
S11117386F6C2A342D73657474696E677300C8
S9030000FC
