S01200004543555F4D61737465722E737265636A
S11300000C942A000C9447000C9447000C9447006D
S11300100C9447000C9447000C9447000C94470040
S11300200C9447000C9447000C9447000C94F10680
S11300300C9447000C94A8040C9481040C9447007D
S11300400C9447000C9447000C9447000C94470010
S11300500C94470011241FBECFE5D8E0DEBFCDBF0E
S113006012E0A0E6B0E0E8EEF4E102C005900D92E3
S1130070A238B107D9F726E0A2E8B2E001C01D9288
S1130080AC3BB207E1F70E94470A0C94720A0C9445
S11300900000CF93833259F190918F02993038F553
S11300A0C82F6AE28DE690E00E94730920918F02C6
S11300B02C9FC0011124092E000CAA0BBB0B4091EC
S11300C08B0250918C0260918D0270918E02840F8C
S11300D0951FA61FB71F80938B0290938C02A09349
S11300E08D02B0938E022F5F20938F0220C08091E7
S11300F083028823A1F08091870290918802A091C5
S11301008902B0918A02892B8A2B8B2B21F486E0F9
S11301108093820207C087E08093820203C082E05A
S1130120809382021092BB0681E08093B706CF9140
S11301300895CF93C82F682F80E190E00E94E906CC
S11301408DE690E00E94900923E830E040E060E012
S11301508DE690E00E94EC096C2F60638DE690E0E0
S11301600E94730922EA30E040E062E08DE690E00C
S11301700E94EC0910928F0210928B0210928C0252
S113018010928D0210928E0281E08093BB06109231
S11301908202CF91089540E063E08DE690E00E94F2
S11301A094096091850260638DE690E00E94730972
S11301B041E063E08DE690E00E949409609186023C
S11301C060638DE690E00E94730980918502863019
S11301D0A1F480918602811110C0809184020E9452
S11301E0A4070E94AD071092B80660E080E190E099
S11301F00E94E90680E00E949900809186028F5F48
S1130200809386028A3038F0809185028F5F8093D4
S1130210850210928602089560918B0289E090E035
S11302200E94E90680918B0290918C02A0918D022C
S1130230B0918E02692F7A2F8B2F99278AE090E054
S11302400E94E90680918B0290918C02A0918D020C
S1130250B0918E02BD01882799278BE090E00E941F
S1130260E90680918B0290918C02A0918D02B0914D
S11302708E026B2F7727882799278CE090E00E94C5
S1130280E90608958091BA068823E1F08DE690E0AE
S11302900E94900922EB30E040E060E08DE690E0BF
S11302A00E94EC0910928202109287021092880236
S11302B01092890210928A0281E0809383028093D3
S11302C0B70608958DE690E00E9490092DEC30E089
S11302D040E060E08DE690E00E94EC092FE38DE0C1
S11302E093E0215080409040E1F700C0000081E09D
S11302F08093B9060895CF92DF92EF92FF920F9305
S11303001F93CF93DF93CDB7DEB728970FB6F8943A
S1130310DEBF0FBECDBF1092B7068091820283303C
S113032009F456C028F4882369F08230E9F013C137
S1130330863009F4A3C0873009F4C4C0843009F0BE
S11303400AC168C010928B0210928C0210928D0226
S113035010928E0210928F0289E490E00E9410099C
S113036081E08093BB06F7C081E08093B70689E003
S113037090E00E94E206182F8AE090E00E94E206D4
S1130380082F8BE090E00E94E206C82ED12CE12CCD
S1130390F12C7601DD24CC24D02AC12A8CE090E013
S11303A00E94E206F82A80918B0290918C02A0911F
S11303B08D02B0918E028C159D05AE05BF0521F40A
S11303C083E080938202C7C084E080938202C3C02A
S11303D08DE690E00E94900928EE30E040E060E075
S11303E08DE690E00E94EC092FE38DE093E021502C
S11303F080409040E1F700C0000081E08093B9069E
S11304008093BA061092BB0660E080E190E00E94FF
S1130410E906A1C080E190E00E94E206833028F45E
S11304208F5F19F00E94990096C01092BB068DE66A
S113043090E00E94900927EF30E040E060E08DE614
S113044090E00E94EC0988E0E3E7F0E0DE01119619
S113045001900D928A95E1F760E080E00E943B07ED
S113046064E872E0CE0101960E94470781E0809320
S1130470B80610928602109285026DC080918B029C
S113048090918C02A0918D02B0918E02809387028C
S113049090938802A0938902B0938A0210928B02EF
S11304A010928C0210928D0210928E0210928F0282
S11304B040E063E08DE690E00E94940981E080933F
S11304C0BB0649C081E08093B90610928302409133
S11304D08702509188026091890270918A0280910A
S11304E08B0290918C02A0918D02B0918E024817DC
S11304F059076A077B07D1F41092BA068DE690E09B
S11305000E9490090E940C0122E231E040E060E088
S11305108DE690E00E94EC092FE38DE093E02150FA
S113052080409040E1F700C0000015C08DE690E0E7
S11305300E9490092FE331E040E060E08DE690E016
S11305400E94EC092FE38DE093E02150804090401D
S1130550E1F700C0000028960FB6F894DEBF0FBE86
S1130560CDBFDF91CF911F910F91FF90EF90DF905E
S1130570CF9008958091BA06813091F08DE690E095
S11305800E94900925E631E040E060E08DE690E0CD
S11305900E94EC091092820281E08093B7060895CC
S11305A08DE690E00E9490092DE831E040E060E0A3
S11305B08DE690E00E94EC092FE986E891E0215055
S11305C080409040E1F700C0000081E08093B906CC
S11305D00895FC011DB82DB1908130E8939FA001CE
S11305E011248581822B282F242B918140E2949F12
S11305F0C0011124822B928140E1949F9001112427
S1130600282B8381880F880F880F282B8481880FDB
S1130610880F282B2DB96E9A08958FB9779BFECF3A
S113062008958830E8F461110EC04AB321E030E047
S1130630B90102C0660F771F8A95E2F7CB01809556
S113064084238ABB08954AB321E030E0B90102C093
S1130650660F771F8A95E2F7CB01842B8ABB089536
S113066098EF980F9830E8F461110EC047B321E079
S113067030E0B90102C0660F771F9A95E2F7CB010B
S11306808095842387BB089547B321E030E0B90106
S113069002C0660F771F9A95E2F7CB01842B87BBC4
S11306A0089590EF980F9830E8F461110EC044B3A8
S11306B021E030E0B90102C0660F771F9A95E2F796
S11306C0CB018095842384BB089544B321E030E0BA
S11306D0B90102C0660F771F9A95E2F7CB01842B0C
S11306E084BB089588518830E0F461110EC041B391
S11306F021E030E0B90102C0660F771F8A95E2F766
S1130700CB018095842381BB089541B321E030E07F
S1130710B90102C0660F771F8A95E2F7CB01842BDB
S113072081BB08958830E8F461110EC04BB321E019
S113073030E0B90102C0660F771F8A95E2F7CB015A
S1130740809584238BBB08954BB321E030E0B9013D
S113075002C0660F771F8A95E2F7CB01842B8BBB0F
S1130760089598EF980F9830E8F461110EC048B3DB
S113077021E030E0B90102C0660F771F9A95E2F7D5
S1130780CB018095842388BB089548B321E030E0F1
S1130790B90102C0660F771F9A95E2F7CB01842B4B
S11307A088BB089590EF980F9830E8F461110EC05B
S11307B045B321E030E0B90102C0660F771F9A9576
S11307C0E2F7CB018095842385BB089545B321E0EE
S11307D030E0B90102C0660F771F9A95E2F7CB01AA
S11307E0842B85BB089588518830E0F461110EC0D4
S11307F042B321E030E0B90102C0660F771F8A9549
S1130800E2F7CB018095842382BB089542B321E0B3
S113081030E0B90102C0660F771F8A95E2F7CB0179
S1130820842B82BB0895883058F429B330E0A901A1
S113083002C0559547958A95E2F7CA0181700895DB
S113084028EF280F283048F486B390E002C095952D
S113085087952A95E2F78170089520EF280F2830B4
S113086048F483B390E002C0959587952A95E2F702
S11308708170089528EE280F283050F490B3892F02
S113088090E002C0959587952A95E2F781700895C6
S113089080E00895FF920F931F93CF93DF93662315
S11308A081F0F42EEC016150062F10E00F5F1F4F12
S11308B0080F191F6F2D89910E949203C017D10749
S11308C0C9F7DF91CF911F910F91FF90089560E0D8
S11308D088E10E94110361E089E10E9411030895F7
S11308E061E08CE00E94110361E08DE00E9411033D
S11308F060E08EE00E94110361E08FE00E9411032A
S113090008951F920F920FB60F9211242F933F93C5
S11309104F935F936F937F938F939F93AF93BF9303
S1130920EF93FF93E0919202F09193020995FF9166
S1130930EF91BF91AF919F918F917F916F915F9153
S11309404F913F912F910F900FBE0F901F901895CC
S11309501F920F920FB60F9211242F933F934F9330
S11309605F936F937F938F939F93AF93BF93EF9313
S1130970FF938CB1E0919002F09191020995FF915F
S1130980EF91BF91AF919F918F917F916F915F9103
S11309904F913F912F910F900FBE0F901F9018957C
S11309A089E189B98AB188618AB980B5866880BDD0
S11309B008959093910280939002579A089591E03C
S11309C0909398022091990230919A02A9014F5F65
S11309D05F4F50939A0240939902F901E556FD4FF7
S11309E08083089510929A021092990210929802AC
S11309F00895CF93DF93EC010E94F204E4E9F2E05E
S1130A0088819981918380838A8182839B81938366
S1130A10811106C00E94D0048FED94E00E94D90495
S1130A20DF91CF910895809198028823A9F01092C4
S1130A3098026091990270919A02FB01E656FD4F6B
S1130A40908180919702981307C0E0919402F091ED
S1130A5095028BE992E00995089590918A0699236D
S1130A6041F010928A0680938C0681E08093B6064A
S1130A70089580938B0681E080938A06089580917F
S1130A808806909189068917D8F5209186063091B9
S1130A908706EBE8F6E0D901A80FB11D9C9190837D
S1130AA091E0980FD901A90FB11D9C9191831092E7
S1130AB0830692E0980FF901E90FF11D9081990FD7
S1130AC09056492F440F440F940F9093830694E05B
S1130AD0980F90938806909183068D5FF901E80F33
S1130AE0F11D8081890F80538093830610928506BF
S1130AF01092840681E08093B6068093B806089528
S1130B0080E00E94A4071092B8068DE690E00E944F
S1130B1090092EE931E040E060E08DE690E00E942B
S1130B20EC0908958091830681508093830688237D
S1130B3091F081E08093B606809185068F5F809363
S1130B4085068A3078F0809184068F5F80938406CE
S1130B50109285060895809188068F5F8093880699
S1130B600E943F0508951092B50621E02093B60631
S1130B7061506093890690938706809386060E944D
S1130B803F0560E080E00E943B0708951F93CF93E8
S1130B90DF93CDB7DEB72C970FB6F894DEBF0FBE48
S1130BA0CDBF182F1092BB0680E690E00E94E902A8
S1130BB0113369F410928D060E94D0048DE295E001
S1130BC00E94D90460E08CE00E94920344C0123376
S1130BD051F58DE690E00E9490092EEA31E040E064
S1130BE060E08DE690E00E94EC0911E010938D0620
S1130BF083EB95E09A8789871B868AE28C87CE01EE
S1130C0009960E94F9041093B50688E0EBE7F0E03A
S1130C10DE01119601900D928A95E1F7CE010196BD
S1130C200E94810718C08DE690E00E9490092CEB89
S1130C3031E040E060E08DE690E00E94EC092FEDA9
S1130C4082E292E0215080409040E1F700C0000031
S1130C5081E08093B9062C960FB6F894DEBF0FBEE0
S1130C60CDBFDF91CF911F9108958DE690E00E9452
S1130C7090098091BA06882391F029EC31E040E094
S1130C8060E08DE690E00E94EC0966EC75E086E693
S1130C9090E00E94F50781E08093BB0608952DEC57
S1130CA030E040E060E08DE690E00E94EC090895B9
S1130CB01092B6068DE690E00E94900980918B0612
S1130CC0843649F118F48136B1F145C0833799F07F
S1130CD0873709F040C022EF31E040E060E08DE664
S1130CE090E00E94EC0987E70E940D0380918C0636
S1130CF00E940D033EC022E032E040E060E08DE659
S1130D0090E00E94EC0983E70E940D0380918C0619
S1130D100E940D032EC023E132E040E060E08DE646
S1130D2090E00E94EC0984E60E940D0380918C06F9
S1130D300E940D031EC021E232E040E060E08DE637
S1130D4090E00E94EC0981E60E940D0380918C06DC
S1130D500E940D030EC080E00E940D0380E00E94FB
S1130D600D032EE232E040E060E08DE690E00E9468
S1130D70EC092AE332E040E061E08DE690E00E9475
S1130D80EC0960918C068DE690E00E9473098091D5
S1130D908D068130B1F421E432E040E062E08DE67A
S1130DA090E00E94EC0960918406605D8DE690E01D
S1130DB00E94730960918506605D8DE690E00E9453
S1130DC073090895E199FECF9FBB8EBBE09A8DB362
S1130DD00895E199FECF9FBB8EBB6DBBE29AE19A69
S1130DE008951F920F920FB60F9211248F939F9321
S1130DF0AF93BF93EF93FF93CF93DF931F92CDB73E
S1130E00DEB719828981833030F5E981F0E0EE0F95
S1130E10FF1FEE0FFF1FEE0FFF1FE556F94F8581F1
S1130E20882399F0E981F0E0EE0FFF1FEE0FFF1F1A
S1130E30E157F94F80819181A281B3810197A10982
S1130E40B10980839183A283B38389818F5F89836E
S1130E5089818330D0F289EF82BF0F90DF91CF91E7
S1130E60FF91EF91BF91AF919F918F910F900FBE22
S1130E700F901F90189589B7816089BF83B78360ED
S1130E8083BF89EF82BF81E080938E0608950F931C
S1130E901F93CF93DF93EC018B0180918E06282F53
S1130EA030E0488159816A817B81F901EE0FFF1F8F
S1130EB0EE0FFF1FEE0FFF1FE556F94F40835183DE
S1130EC0628373839D819583220F331F220F331F07
S1130ED0D901A157B94F4D935D936D937C931397AB
S1130EE09C8194832E813F813783268391E0980FE0
S1130EF090938E06F8018083DF91CF911F910F911B
S1130F000895DC014D915D916D917C911397EBE90E
S1130F10F6E0408351836283738315968C91159711
S1130F20858340938F065093900660939106709347
S1130F30920614968C911497848316968D919C91A5
S1130F40179797838683089528E0829FC001112410
S1130F50FC01E556F94F1582089589B78E7F89BF44
S1130F600895AF92BF92CF92DF92EF92FF920F93C8
S1130F701F93CF93DF93CBE9D6E00FE816E00F2E53
S1130F80F3EBEF2EF6E0FF2EF02D6E018D81813014
S1130F90D9F45801F80180819181A281B381892B10
S1130FA08A2B8B2B89F4EE81FF8109958C81811129
S1130FB001C01D82F60180819181A281B381F50176
S1130FC080839183A283B38328960C5F1F4FCE1531
S1130FD0DF05D9F6DF91CF911F910F91FF90EF902C
S1130FE0DF90CF90BF90AF900895EF92FF920F9350
S1130FF01F93CF93DF937B01EC018C010C5F1F4F98
S113100060E089910E94110361E08B810E941103C9
S1131010C017D107A9F7F092B406E092B306DF91A6
S1131020CF911F910F91FF90EF9008952F923F92CF
S11310304F925F926F927F928F929F92AF92BF92E4
S1131040CF92DF92EF92FF920F931F93CF93DF9390
S113105000D01F92CDB7DEB75C0104969B838A83D0
S113106040E063E00E944A0441E064E0C5010E945C
S11310704A0419828981843008F0BCC0212C8981FA
S1131080F501E80FF11D80810E941304811181C0D4
S11310906090B3067090B406450194E0890E911CEB
S11310A0322C412C41E063E08A819B810E944A04F6
S11310B0622DF40181914F010E9492036501E12C9C
S11310C0F12C5E2CFFEFEF1AFF0AF60181916F01FC
S11310D00E94130481114DC0860101501109F801C9
S11310E080810E9413048823D1F3F1E05F16C1F0DC
S11310F05F1638F082E0581611F193E0591671F139
S113110038C0442009F44DC0E1E04E1609F44EC045
S1131110F2E04F12D6CF0F2EF3E33F2EF02DD1CFB6
S1131120442009F448C081E0481609F449C092E01B
S11311304912C7CF0F2EF6E33F2EF02DC2CF442025
S113114009F443C0E1E04E1609F444C0F2E04F1242
S1131150B8CF0F2EF9E33F2EF02DB3CF442009F47E
S11311603EC081E0481609F43FC092E0491205C030
S113117009C0E3E0EE1508F0A4CF4394F3E04F1266
S113118091CF04C00F2EF3E23F2EF02D832DF301F7
S1131190099589818F5F89838981843008F46FCFB1
S11311A029C00F2EF1E33F2EF02D8BCF0F2EF2E34B
S11311B03F2EF02D86CF0F2EF4E33F2EF02D81CF5E
S11311C00F2EF5E33F2EF02D7CCF0F2EF7E33F2EAD
S11311D0F02D77CF0F2EF8E33F2EF02D72CF0F2E88
S11311E0FAE23F2EF02D04C00F2EF0E33F2EF02D37
S11311F0439458CF0F900F900F90DF91CF911F9190
S11312000F91FF90EF90DF90CF90BF90AF909F90A1
S11312108F907F906F905F904F903F902F900895A4
S11312209093B4068093B3060895CF92DF92EF9221
S1131230FF920F931F93CF93DF936C018C01C0E057
S1131240D0E0E62EF12CC7010C2E02C095958795AF
S11312500A94E2F780FF06C061E0F80180810E94F1
S1131260920305C060E0F80180810E9492032196F8
S11312700F5F1F4FC430D10531F760E0F601848160
S11312800E94920389EF90E00197F1F700C00000FB
S113129061E0F60184810E949203DF91CF911F9156
S11312A00F91FF90EF90DF90CF9008951F93CF930D
S11312B0DF93EC01162F60E08D810E949203612F71
S11312C062956F70CE010E941509612FCE010E94B4
S11312D0150983EF91E00197F1F700C00000DF9159
S11312E0CF911F9108951F93CF93DF93EC01162F95
S11312F061E08D810E949203612F62956F70CE012F
S11313000E941509612FCE010E94150989EF90E012
S11313100197F1F700C00000DF91CF911F9108956C
S113132061E00E9456090895611105C0642F606848
S11313300E9456090895613029F4642F606C0E945C
S113134056090895623029F4642F60690E94560991
S11313500895633021F4642F606D0E945609089546
S1131360EF92FF920F931F93CF93DF938C01EC01C5
S11313707C0184E0E80EF11C61E089910E94110374
S1131380CE15DF05C9F761E0F80185810E941103DC
S113139061E0F80184810E94110362E0C8010E94A7
S11313A0560968E2C8010E94560966E0C8010E9415
S11313B0560940E060E0C8010E9494096CE0C8014D
S11313C00E945609C8010E949009DF91CF911F9194
S11313D00F91FF90EF900895DF92EF92FF920F9399
S11313E01F93CF93DF938C01F62ED22EE32E0E940F
S11313F09409CD2DDE2D0CC06A3239F4F39440E00B
S11314006F2DC8010E94940903C0C8010E9473098A
S113141069916111F1CFDF91CF911F910F91FF90ED
S1131420EF90DF9008951092BB06833339F0843334
S113143041F0813341F40E94BA0208950E943506B6
S113144008950E944201089563E17AE086E690E0FF
S11314500E94F5078DE690E00E94B0090E94700496
S11314600E94670408958DE690E00E94900927E4A5
S113147032E040E060E08DE690E00E94EC0983E118
S11314809AE00E94100981E08093BB0608950E94AF
S1131490240A0E94330A78948091BB06882321F0A1
S11314A086E690E00E9416088091B906882321F010
S11314B01092B9060E94330A8091B80681110E94E5
S11314C0B1078091B70681110E947B018091B60615
S11314D081110E9458068091B5068823E9F20E9482
S10B14E01305DACFF894FFCFE5
S11314E80000010000011213141516171A00010256
S11314F8030405E80300000101CB00E80300000130
S113150801920570617373776F72642077726F6EDE
S113151867652A4E756D62657220747269616C73B1
S11315283A00456E7465722070617373776F7264E4
S11315382A00656E746572204E65772A506173734C
S1131548776F726420706C656173652A00656E74C8
S113155865722073797374656D2A66697273742071
S1131568706C656173652A0070617373776F726458
S113157820526967687400796F75206578636565BA
S11315886465642A6C696D6974206F662054726995
S1131598616C732A776169742061206D696E757452
S11315A8650070617373776F72642A6368616E672C
S11315B8652A7375636365737366756C6C790070FB
S11315C8617373776F72642A446F6E2774206D6138
S11315D87463682A706C65617365205472792A6132
S11315E86761696E00656E746572207061737377E4
S11315F86F72642A7072657373272327746F2A6560
S11316086E642D70617373776F72642A00737973D3
S113161874656D206973206C6F6767656400436F38
S11316286D6D616E64732046696E697368005761F5
S1131638697420436F6D6D616E64730077726F6EA9
S1131648672063686F69636500656E746572206DF1
S11316586F64652A312D6C69766520636F6E7472C8
S11316686F6C2A322D6175746F20627566666572B7
S11316782A00526F7620476F20666F727761726412
S11316882A00526F7620476F206261636B776F720E
S1131698642A00526F7620476F2072696768742A3B
S11316A800526F7620476F206C6566742A00526F6B
S11316B87620737461626C652A00506F7765723A9C
S11316C80054696D653A00312D456E746572207356
S11316D8797374656D2A322D55706461746520734D
S11316E8797374656D2A332D52656D6F7465206343
S11316F86F6E74726F6C2A342D73657474696E67B7
S1051708730068
S9030000FC
