:100000000C942A000C9447000C9447000C94470071
:100010000C9447000C9447000C9447000C94470044
:100020000C9447000C9447000C9447000C94C605B0
:100030000C9447000C949C040C9475040C94470099
:100040000C9447000C9447000C9447000C94470014
:100050000C94470011241FBECFE5D8E0DEBFCDBF12
:1000600012E0A0E6B0E0ECE1F2E102C005900D92F2
:10007000A435B107D9F722E0A4E5B2E001C01D9292
:10008000AA38B207E1F70E94E6080C940C090C9418
:100090000000CF93833259F190916102993038F585
:1000A000C82F6AE28DE690E00E9414082091610258
:1000B0002C9FC0011124092E000CAA0BBB0B4091F0
:1000C0005D0250915E0260915F0270916002840F48
:1000D000951FA61FB71F80935D0290935E02A093A9
:1000E0005F02B09360022F5F2093610220C0809175
:1000F00055028823A1F08091590290915A02A09153
:100100005B02B0915C02892B8A2B8B2B21F486E059
:100110008093540207C087E08093540203C082E0BA
:10012000809354021092890281E080938502CF91DE
:100130000895CF93C82F682F80E190E00E94BE05FC
:100140008DE690E00E94310829E730E040E060E071
:100150008DE690E00E948D086C2F60638DE690E044
:100160000E94140828E930E040E062E08DE690E06B
:100170000E948D081092610210925D0210925E0240
:1001800010925F021092600281E0809389021092C7
:100190005402CF91089540E063E08DE690E00E9424
:1001A00035086091570260638DE690E00E94140864
:1001B00041E063E08DE690E00E94350860915802CE
:1001C00060638DE690E00E941408809157028630AB
:1001D000A1F480915802811110C0809156020E94B2
:1001E0004A060E9456061092860260E080E190E086
:1001F0000E94BE0580E00E949900809158028F5FA6
:10020000809358028A3038F0809157028F5F809334
:10021000570210925802089560915D0289E090E0C3
:100220000E94BE0580915D0290915E02A0915F02E6
:10023000B0916002692F7A2F8B2F99278AE090E086
:100240000E94BE0580915D0290915E02A0915F02C6
:10025000B0916002BD01882799278BE090E00E9451
:10026000BE0580915D0290915E02A0915F02B09107
:1002700060026B2F7727882799278CE090E00E94F7
:10028000BE050895809188028823E1F08DE690E014
:100290000E94310828EA30E040E060E08DE690E01E
:1002A0000E948D08109254021092590210925A0224
:1002B00010925B0210925C0281E080935502809361
:1002C000850208958DE690E00E94310823EC30E02D
:1002D00040E060E08DE690E00E948D082FE38DE025
:1002E00093E0215080409040E1F700C0000081E0A1
:1002F000809387020895CF92DF92EF92FF920F933F
:100300001F93CF93DF9300D000D000D0CDB7DEB7DE
:100310001092850280915402833009F456C028F46B
:10032000882369F08230E9F013C1863009F4A3C054
:10033000873009F4C4C0843009F00AC168C0109243
:100340005D0210925E0210925F02109260021092A3
:10035000610289E490E00E94B10781E08093890204
:10036000F7C081E08093850289E090E00E94B705A4
:10037000182F8AE090E00E94B705082F8BE090E0EC
:100380000E94B705C82ED12CE12CF12C7601DD247A
:10039000CC24D02AC12A8CE090E00E94B705F82A2C
:1003A00080915D0290915E02A0915F02B091600227
:1003B0008C159D05AE05BF0521F483E080935402A2
:1003C000C7C084E080935402C3C08DE690E00E94D1
:1003D00031082EED30E040E060E08DE690E00E94D4
:1003E0008D082FE38DE093E0215080409040E1F7AD
:1003F00000C0000081E08093870280938802109201
:10040000890260E080E190E00E94BE05A1C080E129
:1004100090E00E94B705833028F48F5F19F00E94A6
:10042000990096C0109289028DE690E00E943108F2
:100430002DEE30E040E060E08DE690E00E948D0817
:1004400086E0E3E7F0E0DE01119601900D928A95D7
:10045000E1F760E080E00E94050666E572E0CE010B
:1004600001960E94100681E0809386021092580245
:10047000109257026DC080915D0290915E02A09132
:100480005F02B09160028093590290935A02A09348
:100490005B02B0935C0210925D0210925E021092B9
:1004A0005F02109260021092610240E063E08DE60C
:1004B00090E00E94350881E08093890249C081E084
:1004C00080938702109255024091590250915A022E
:1004D00060915B0270915C0280915D0290915E027E
:1004E000A0915F02B0916002481759076A077B0725
:1004F000D1F4109288028DE690E00E9431080E94AB
:100500000C0128E131E040E060E08DE690E00E94DF
:100510008D082FE38DE093E0215080409040E1F77B
:1005200000C0000015C08DE690E00E94310825E370
:1005300031E040E060E08DE690E00E948D082FE31E
:100540008DE093E0215080409040E1F700C0000032
:1005500026960FB6F894DEBF0FBECDBFDF91CF91C8
:100560001F910F91FF90EF90DF90CF9008958091B1
:100570008802813091F08DE690E00E9431082BE5F1
:1005800031E040E060E08DE690E00E948D0810923E
:10059000540281E08093850208958DE690E00E94E8
:1005A000310823E831E040E060E08DE690E00E9411
:1005B0008D082FE986E891E0215080409040E1F7D6
:1005C00000C0000081E0809387020895FC011DB8FF
:1005D0002DB1908130E8939FA00111248581822B59
:1005E000282F242B918140E2949FC0011124822B5B
:1005F000928140E1949F90011124282B8381880FE0
:10060000880F880F282B8481880F880F282B2DB9FD
:100610006E9A08958FB9779BFECF08958830E8F4DD
:1006200061110EC04AB321E030E0B90102C0660F8B
:10063000771F8A95E2F7CB01809584238ABB0895C2
:100640004AB321E030E0B90102C0660F771F8A95F6
:10065000E2F7CB01842B8ABB089598EF980F98306E
:10066000E8F461110EC047B321E030E0B90102C0E7
:10067000660F771F9A95E2F7CB018095842387BB9D
:10068000089547B321E030E0B90102C0660F771F3B
:100690009A95E2F7CB01842B87BB089590EF980FD2
:1006A0009830E8F461110EC044B321E030E0B901A4
:1006B00002C0660F771F9A95E2F7CB0180958423DD
:1006C00084BB089544B321E030E0B90102C0660F55
:1006D000771F9A95E2F7CB01842B84BB089588514C
:1006E0008830E0F461110EC041B321E030E0B9017F
:1006F00002C0660F771F8A95E2F7CB0180958423AD
:1007000081BB089541B321E030E0B90102C0660F1A
:10071000771F8A95E2F7CB01842B81BB089588303F
:10072000E8F461110EC04BB321E030E0B90102C022
:10073000660F771F8A95E2F7CB01809584238BBBE8
:1007400008954BB321E030E0B90102C0660F771F76
:100750008A95E2F7CB01842B8BBB089598EF980F15
:100760009830E8F461110EC048B321E030E0B901DF
:1007700002C0660F771F9A95E2F7CB01809584231C
:1007800088BB089548B321E030E0B90102C0660F8C
:10079000771F9A95E2F7CB01842B88BB089590EFE1
:1007A000980F9830E8F461110EC045B321E030E0B5
:1007B000B90102C0660F771F9A95E2F7CB018095C9
:1007C000842385BB089545B321E030E0B90102C020
:1007D000660F771F9A95E2F7CB01842B85BB0895AE
:1007E00088518830E0F461110EC042B321E030E05E
:1007F000B90102C0660F771F8A95E2F7CB01809599
:10080000842382BB089542B321E030E0B90102C0E5
:10081000660F771F8A95E2F7CB01842B82BB089580
:10082000883058F429B330E0A90102C055954795A6
:100830008A95E2F7CA018170089528EF280F2830C1
:1008400048F486B390E002C0959587952A95E2F723
:100850008170089520EF280F283048F483B390E08A
:1008600002C0959587952A95E2F78170089528EE44
:10087000280F283050F490B3892F90E002C095954E
:1008800087952A95E2F78170089580E00895FF9298
:100890000F931F93CF93DF93662381F0F42EEC0127
:1008A0006150062F10E00F5F1F4F080F191F6F2DAB
:1008B00089910E948F03C017D107C9F7DF91CF91AB
:1008C0001F910F91FF90089561E08CE00E940E034C
:1008D00061E08DE00E940E0360E08EE00E940E0356
:1008E00061E08FE00E940E0308951F920F920FB6F1
:1008F0000F9211242F933F934F935F936F937F93A6
:100900008F939F93AF93BF93EF93FF93E091640214
:10091000F09165020995FF91EF91BF91AF919F9181
:100920008F917F916F915F914F913F912F910F9098
:100930000FBE0F901F9018951F920F920FB60F9237
:1009400011242F933F934F935F936F937F938F93D4
:100950009F93AF93BF93EF93FF938CB1E0916202AB
:10096000F09163020995FF91EF91BF91AF919F9133
:100970008F917F916F915F914F913F912F910F9048
:100980000FBE0F901F90189589E189B98AB18861CF
:100990008AB980B5866880BD08959093630280937C
:1009A0006202579A089590916602992341F010923D
:1009B00066028093680281E08093840208958093A8
:1009C000670281E080936602089510928902813364
:1009D00079F40E94C40483ED94E00E94CD0480E683
:1009E00090E00E94E60260E08CE00E948F03089590
:1009F0008233C1F08DE690E00E94310824E931E0B5
:100A000040E060E08DE690E00E948D082FED82E2EC
:100A100092E0215080409040E1F700C0000081E06A
:100A20008093870208958DE690E00E9431088091BE
:100A30008802882391F021EA31E040E060E08DE611
:100A400090E00E948D0865EE74E086E690E00E94DA
:100A5000960681E080938902089523EC30E040E01F
:100A600060E08DE690E00E948D0808951092840267
:100A700080916702843691F120F4813609F442C0F6
:100A800055C08337B9F0873709F050C08DE690E044
:100A90000E9431082AEC31E040E060E08DE690E011
:100AA0000E948D0887E70E940A03809168020E94D5
:100AB0000A034EC08DE690E00E9431082AED31E035
:100AC00040E060E08DE690E00E948D0883E70E94A0
:100AD0000A03809168020E940A033AC08DE690E002
:100AE0000E9431082BEE31E040E060E08DE690E0BE
:100AF0000E948D0884E60E940A03809168020E9489
:100B00000A0326C08DE690E00E94310829EF31E00B
:100B100040E060E08DE690E00E948D0881E60E9452
:100B20000A03809168020E940A0312C08DE690E0D9
:100B30000E94310880E00E940A0380E00E940A03BC
:100B400026E032E040E060E08DE690E00E948D0813
:100B500022E132E040E061E08DE690E00E948D0805
:100B6000609168028DE690E00E9414080895E19972
:100B7000FECF9FBB8EBBE09A8DB30895E199FECF67
:100B80009FBB8EBB6DBBE29AE19A08951F920F92B4
:100B90000FB60F9211248F939F93EF93FF93CF93F0
:100BA000DF931F92CDB7DEB7198289818330F8F4C5
:100BB000898190E0FC01EE0FFF1FE80FF91FEE0F97
:100BC000FF1FE059FD4F8381882359F0E981F0E050
:100BD000EE0FFF1FE659FD4F8081918101979183B0
:100BE000808389818F5F89838981833008F389EFCE
:100BF00082BF0F90DF91CF91FF91EF919F918F91E5
:100C00000F900FBE0F901F90189589B7816089BF14
:100C100083B7836083BF89EF82BF10926902089512
:100C2000EF92FF920F931F93CF93DF93EC0180918C
:100C30006902282F30E0488159817901EE0CFF1CB0
:100C4000D701A20FB31FAA0FBB1FA059BD4F11960A
:100C50005C934E939B8113969C931397870106593F
:100C60001D4FF801518340839A8112969C931297ED
:100C7000FD012C813D813583248391E0980F909371
:100C80006902FB018083DF91CF911F910F91FF904B
:100C9000EF90089590E0FC01EE0FFF1FE80FF91FA1
:100CA000EE0FFF1FE059FD4F1382089589B78E7F25
:100CB00089BF0895AF92BF92CF92DF92EF92FF92D9
:100CC0000F931F93CF93DF93C0E7D2E00AE612E0C1
:100CD0000F2EF2E8EF2EF2E0FF2EF02D6E018B8149
:100CE000813099F45801D8018D919C91892B69F438
:100CF000EC81FD8109958A81811101C01B82F60179
:100D000080819181D5018D939C9326960E5F1F4F14
:100D1000CE15DF0519F7DF91CF911F910F91FF904D
:100D2000EF90DF90CF90BF90AF900895EF92FF9239
:100D30000F931F93CF93DF937B01EC018C010C5F2A
:100D40001F4F60E089910E940E0361E08B810E9439
:100D50000E03C017D107A9F7F0928302E092820236
:100D6000DF91CF911F910F91FF90EF9008952F92F7
:100D70003F924F925F926F927F928F929F92AF922B
:100D8000BF92CF92DF92EF92FF920F931F93CF9378
:100D9000DF9300D01F92CDB7DEB75C0104969B8332
:100DA0008A8340E063E00E94470441E064E0C501BB
:100DB0000E94470419828981843008F0BCC0212C2C
:100DC0008981F501E80FF11D80810E9410048111D5
:100DD00081C06090820270908302450194E0890E88
:100DE000911C322C412C41E063E08A819B810E945E
:100DF0004704622DF40181914F010E948F03650128
:100E0000E12CF12C5E2CFFEFEF1AFF0AF601819125
:100E10006F010E94100481114DC08601015011091B
:100E2000F80180810E9410048823D1F3F1E05F165D
:100E3000C1F05F1638F082E0581611F193E05916B0
:100E400071F138C0442009F44DC0E1E04E1609F4B8
:100E50004EC0F2E04F12D6CF0F2EF3E33F2EF02D0F
:100E6000D1CF442009F448C081E0481609F449C0B4
:100E700092E04912C7CF0F2EF6E33F2EF02DC2CFDE
:100E8000442009F443C0E1E04E1609F444C0F2E006
:100E90004F12B8CF0F2EF9E33F2EF02DB3CF4420E1
:100EA00009F43EC081E0481609F43FC092E04912BF
:100EB00005C009C0E3E0EE1508F0A4CF4394F3E0C9
:100EC0004F1291CF04C00F2EF3E23F2EF02D832D51
:100ED000F301099589818F5F89838981843008F4C2
:100EE0006FCF29C00F2EF1E33F2EF02D8BCF0F2EA9
:100EF000F2E33F2EF02D86CF0F2EF4E33F2EF02DA0
:100F000081CF0F2EF5E33F2EF02D7CCF0F2EF7E390
:100F10003F2EF02D77CF0F2EF8E33F2EF02D72CF1E
:100F20000F2EFAE23F2EF02D04C00F2EF0E33F2EDD
:100F3000F02D439458CF0F900F900F90DF91CF91E9
:100F40001F910F91FF90EF90DF90CF90BF90AF90E7
:100F50009F908F907F906F905F904F903F902F90D9
:100F6000089590938302809382020895CF92DF9236
:100F7000EF92FF920F931F93CF93DF936C018C013D
:100F8000C0E0D0E0E62EF12CC7010C2E02C09595F2
:100F900087950A94E2F780FF06C061E0F80180813E
:100FA0000E948F0305C060E0F80180810E948F03DA
:100FB00021960F5F1F4FC430D10531F760E0F60175
:100FC00084810E948F0389EF90E00197F1F700C0C0
:100FD000000061E0F60184810E948F03DF91CF91D0
:100FE0001F910F91FF90EF90DF90CF9008951F9386
:100FF000CF93DF93EC01162F60E08D810E948F0369
:10100000612F62956F70CE010E94B607612FCE01ED
:101010000E94B60783EF91E00197F1F700C000004E
:10102000DF91CF911F9108951F93CF93DF93EC0130
:10103000162F61E08D810E948F03612F62956F7082
:10104000CE010E94B607612FCE010E94B60789EF3C
:1010500090E00197F1F700C00000DF91CF911F9160
:10106000089561E00E94F7070895611105C0642F9B
:1010700060680E94F7070895613029F4642F606C5E
:101080000E94F7070895623029F4642F60690E9476
:10109000F7070895633021F4642F606D0E94F7070D
:1010A0000895EF92FF920F931F93CF93DF938C01DC
:1010B000EC017C0184E0E80EF11C61E089910E9462
:1010C0000E03CE15DF05C9F761E0F80185810E94A6
:1010D0000E0361E0F80184810E940E0362E0C80102
:1010E0000E94F70768E2C8010E94F70766E0C8019E
:1010F0000E94F70740E060E0C8010E9435086FE0F9
:10110000C8010E94F707C8010E943108DF91CF9102
:101110001F910F91FF90EF900895DF92EF92FF9251
:101120000F931F93CF93DF938C01F62ED22EE32ED5
:101130000E943508CD2DDE2D0CC06A3239F4F394AF
:1011400040E06F2DC8010E94350803C0C8010E940D
:10115000140869916111F1CFDF91CF911F910F9127
:10116000FF90EF90DF90089510928902833339F059
:10117000843341F0813341F40E94B70208950E9404
:10118000130508950E944201089564EB78E086E615
:1011900090E00E9496068DE690E00E9451080E9421
:1011A000640408958DE690E00E94310829E132E060
:1011B00040E060E08DE690E00E948D0884EB98E0CE
:1011C0000E94B10781E08093890208950E94C508BA
:1011D0000E94D208789480918902882321F086E6C3
:1011E00090E00E94B70680918702882321F0109238
:1011F00087020E94D2088091860281110E945A06BD
:101200008091850281110E947B0180918402882354
:0C12100011F30E943605DFCFF894FFCFE9
:10121C000000010000011213141516171A00010228
:10122C00030405E8030101CB0070617373776F72DF
:10123C00642077726F6E67652A4E756D62657220D9
:10124C00747269616C733A00456E746572207061DA
:10125C007373776F72642A00656E746572204E65C5
:10126C00772A50617373776F726420706C65617349
:10127C00652A00656E7465722073797374656D2AC6
:10128C00666972737420706C656173652A00706195
:10129C007373776F726420526967687400796F7525
:1012AC002065786365656465642A6C696D69742072
:1012BC006F6620547269616C732A7761697420615E
:1012CC00206D696E7574650070617373776F7264ED
:1012DC002A6368616E67652A7375636365737366E9
:1012EC00756C6C790070617373776F72642A446FDC
:1012FC006E2774206D617463682A706C6561736508
:10130C00205472792A616761696E00656E7465722A
:10131C002070617373776F72642A707265737327B0
:10132C002327746F2A656E642D70617373776F72E7
:10133C00642A0073797374656D206973206C6F6710
:10134C006765640077726F6E672063686F696365A9
:10135C0000656E746572206D6F64652A312D6C6941
:10136C00766520636F6E74726F6C2A322D617574A2
:10137C006F206275666665722A00526F7620476F21
:10138C0020666F72776172642A00526F7620476F05
:10139C00206261636B776F72642A00526F7620470C
:1013AC006F2072696768742A00526F7620476F202D
:1013BC006C6566742A00526F7620737461626C657A
:1013CC002A00506F7765723A00312D456E74657244
:1013DC002073797374656D2A322D55706461746550
:1013EC002073797374656D2A332D52656D6F746536
:1013FC0020636F6E74726F6C2A342D73657474690C
:04140C006E67730094
:00000001FF
