S01800004543555F53656E736F7253797374656D2E73726563D1
S11300000C942A000C9483000C94AA000C94D10044
S11300100C9447000C9447000C9447000C94470040
S11300200C9447000C9447000C9447000C947903FB
S11300300C9447000C94C6020C949F020C94470045
S11300400C9447000C9447000C9447000C94430212
S11300500C94470011241FBECFE5D8E0DEBFCDBF0E
S113006011E0A0E6B0E0E4ECFFE002C005900D92E0
S1130070A830B107D9F725E0A8E0B1E001C01D928E
S1130080AA34B207E1F70E94D7040C94E0070C9459
S1130090000028E030E0B09BFECF9AE09A95F1F79B
S11300A0B09B03C0880F816001C0880FB099FECF58
S11300B02150310981F70895B89AC09887E893E1EF
S11300C00197F1F700C00000C09A0895B898B0995C
S11300D0FECFB09BFECFB099FECF0895CF93DF93B0
S11300E0EC010E94490088830E94490089830E9490
S11300F049008A830E9449008B830E9449008C83B3
S1130100DF91CF9108951F920F920FB60F92112491
S11301102F933F934F935F936F937F938F939F930B
S1130120AF93BF93EF93FF93E0910801F09109011E
S11301300995FF91EF91BF91AF919F918F917F911D
S11301406F915F914F913F912F910F900FBE0F9040
S11301501F9018951F920F920FB60F9211242F9390
S11301603F934F935F936F937F938F939F93AF933B
S1130170BF93EF93FF93E0910A01F0910B0109956E
S1130180FF91EF91BF91AF919F918F917F916F916B
S11301905F914F913F912F910F900FBE0F901F9041
S11301A018951F920F920FB60F9211242F933F931D
S11301B04F935F936F937F938F939F93AF93BF936B
S11301C0EF93FF93E0910C01F0910D010995FF91DC
S11301D0EF91BF91AF919F918F917F916F915F91BB
S11301E04F913F912F910F900FBE0F901F90189534
S11301F0863029F0873079F0853059F51AC08A980D
S113020085B78C7F85BF85B7682B65BF509309017F
S11302104093080108958B9885B7837F85BF85B780
S1130220660F660F682B65BF50930B0140930A015C
S11302300895BA98623021F484B78F7B84BF05C0D7
S1130240633019F484B7806484BF50930D014093E4
S11302500C0108959BB721E030E002C0220F331F48
S11302608A95E2F7292B2BBF08959BB721E030E054
S113027002C0220F331F8A95E2F7209529232BBF52
S113028008958830E8F461110EC04AB321E030E0EB
S1130290B90102C0660F771F8A95E2F7CB018095FA
S11302A084238ABB08954AB321E030E0B90102C037
S11302B0660F771F8A95E2F7CB01842B8ABB0895DA
S11302C098EF980F9830E8F461110EC047B321E01D
S11302D030E0B90102C0660F771F9A95E2F7CB01AF
S11302E08095842387BB089547B321E030E0B901AA
S11302F002C0660F771F9A95E2F7CB01842B87BB68
S1130300089590EF980F9830E8F461110EC044B34B
S113031021E030E0B90102C0660F771F9A95E2F739
S1130320CB018095842384BB089544B321E030E05D
S1130330B90102C0660F771F9A95E2F7CB01842BAF
S113034084BB089588518830E0F461110EC041B334
S113035021E030E0B90102C0660F771F8A95E2F709
S1130360CB018095842381BB089541B321E030E023
S1130370B90102C0660F771F8A95E2F7CB01842B7F
S113038081BB08958830E8F461110EC04BB321E0BD
S113039030E0B90102C0660F771F8A95E2F7CB01FE
S11303A0809584238BBB08954BB321E030E0B901E1
S11303B002C0660F771F8A95E2F7CB01842B8BBBB3
S11303C0089598EF980F9830E8F461110EC048B37F
S11303D021E030E0B90102C0660F771F9A95E2F779
S11303E0CB018095842388BB089548B321E030E095
S11303F0B90102C0660F771F9A95E2F7CB01842BEF
S113040088BB089590EF980F9830E8F461110EC0FE
S113041045B321E030E0B90102C0660F771F9A9519
S1130420E2F7CB018095842385BB089545B321E091
S113043030E0B90102C0660F771F9A95E2F7CB014D
S1130440842B85BB089588518830E0F461110EC077
S113045042B321E030E0B90102C0660F771F8A95EC
S1130460E2F7CB018095842382BB089542B321E057
S113047030E0B90102C0660F771F8A95E2F7CB011D
S1130480842B82BB08951F920F920FB60F921124F2
S11304902F933F934F935F936F937F938F939F9388
S11304A0AF93BF93EF93FF9380914D01813031F46B
S11304B0E0914E01F0914F01099508C0E0914B0184
S11304C0F0914C0185EC86BF83B10995FF91EF91C2
S11304D0BF91AF919F918F917F916F915F914F9158
S11304E03F912F910F900FBE0F901F9018958093FE
S11304F04D0182E080B911B880ED82B984E086BFF5
S1130500089584EA86BF06B607FEFDCF089584E900
S113051086BF089583B984E886BF06B607FEFDCF7B
S1130520089584EC86BF06B607FEFDCF83B1089517
S113053084E886BF06B607FEFDCF83B108951F92F7
S11305400F920FB60F9211242F933F934F935F9303
S11305506F937F938F939F93AF93BF93EF93FF9387
S1130560E0911001F09111010995FF91EF91BF9174
S1130570AF919F918F917F916F915F914F913F9137
S11305802F910F900FBE0F901F9018951F920F92EE
S11305900FB60F9211242F933F934F935F936F9352
S11305A07F938F939F93AF93BF93EF93FF938CB1FC
S11305B0E0910E01F0910F010995FF91EF91BF9128
S11305C0AF919F918F917F916F915F914F913F91E7
S11305D02F910F900FBE0F901F90189589E189B944
S11305E08AB188618AB980B5866880BD08955D9BAB
S11305F0FECF8CB908959093110180931001559A00
S113060008955598089580911301909114012091B3
S1130610190130911A012817390718F120911B018B
S113062021110AC02091170130911801F901E80F36
S1130630F91F80810E94F702209113013091140167
S1130640C9010196909314018093130140911901FB
S113065050911A014817590720F43093140120933C
S1130660130181E0809312010895109214011092F5
S11306701301109212010895CF93DF93EC010E94AD
S113068035038E81E5E1F1E086832C813D8135835C
S1130690248328813981318320832A813B813383D8
S11306A02283811106C00E94EE0283E093E00E943F
S11306B0FB02DF91CF910895809112018823C1F04C
S11306C0109212012091190130911A0180911301A5
S11306D0909114012817390759F480911B01811155
S11306E002C00E940103E0911501F09116010995E1
S11306F008951F920F920FB60F9211248F939F9318
S1130700AF93BF93EF93FF93CF93DF931F92CDB734
S1130710DEB7198289818330B0F5E981F0E0EE0F0C
S1130720FF1FEE0FFF1FEE0FFF1FE75DFE4F8581DA
S1130730882319F1E981F0E0EE0FFF1FEE0FFF1F90
S1130740E35EFE4F80819181A281B381892B8A2B44
S11307508B2B99F0E981F0E0EE0FFF1FEE0FFF1FE6
S1130760E35EFE4F80819181A281B3810197A1094B
S1130770B10980839183A283B38389818F5F898345
S11307808981833050F289EF82BF0F90DF91CF913E
S1130790FF91EF91BF91AF919F918F910F900FBEF9
S11307A00F901F90189589B7816089BF83B78360C4
S11307B083BF89EF82BF81E080931C010895DC012F
S11307C04D915D916D917C911397E9E2F1E0408345
S11307D051836283738315968C9115978583409317
S11307E01D0150931E0160931F0170932001149604
S11307F08C911497848316968D919C911797978367
S11308008683089589B78E7F89BF089589B78160EB
S113081089BF0895AF92BF92CF92DF92EF92FF9279
S11308200F931F93CF93DF93C9E2D1E00DE111E061
S11308300F2EF1E4EF2EF1E0FF2EF02D6E018D81ED
S11308408130D9F45801F80180819181A281B3816A
S1130850892B8A2B8B2B89F4EE81FF8109958C815E
S1130860811101C01D82F60180819181A281B38131
S1130870F50180839183A283B38328960C5F1F4F75
S1130880CE15DF05D9F6DF91CF911F910F91FF901F
S1130890EF90DF90CF90BF90AF9008950E94350302
S11308A008950F931F93CF93DF93CDB7DEB72797A8
S11308B00FB6F894DEBF0FBECDBF0E94020482E6DD
S11308C090E00E94600705E511E0F80191838083C0
S11308D080E690E00E946007F801938382830E947F
S11308E05C000E94660080E591E00E946E0089E54C
S11308F091E00E94FB060E946D068EE494E09A83C8
S1130900898380E691E09C838B8380914805909154
S113091049059E838D831F82CE0101960E943C036C
S11309200E94060427960FB6F894DEBF0FBECDBF13
S1130930DF91CF911F910F910895CF93DF93CDB79E
S1130940DEB728970FB6F894DEBF0FBECDBF0E9466
S1130950DF0461E089E00E94410180E690E00E94AA
S1130960500782E690E00E94500783ED90E30197E0
S1130970F1F700C000000E94EA0688E0ECE8F0E02D
S1130980DE01119601900D928A95E1F760E080E016
S11309900E94D303CE0101960E94DF0328960FB66E
S11309A0F894DEBF0FBECDBFDF91CF9108950E94B2
S11309B09D0478940E940A040E945C03FBCF1F9359
S11309C0CF93DF93C0E6D1E0DE010D900020E9F77C
S11309D0119789E2E4E9F0E001900D928A95E1F73C
S11309E0FE0101900020E9F731971DE01083DE013C
S11309F00D900020E9F7119786E0EDEBF0E001900F
S1130A000D928A95E1F7FE0101900020E9F73197F4
S1130A10E056F140E093460161E870E0CE010E94A7
S1130A20A007FE0101900020E9F731971083DE0151
S1130A300D900020E9F7119786E0E3ECF0E00190D7
S1130A400D928A95E1F7FE0101900020E9F73197B4
S1130A50E056F140E093450168E770E0CE010E9462
S1130A60A007FE0101900020E9F731971083DE0111
S1130A700D900020E9F711978CE0E9ECF0E001908B
S1130A800D928A95E1F7FE0101900020E9F7319774
S1130A90E056F140E093440164E770E0CE010E9427
S1130AA0A007FE0101900020E9F731971083DE01D1
S1130AB00D900020E9F711978AE0E5EDF0E0019050
S1130AC00D928A95E1F7FE0101900020E9F7319734
S1130AD0E056F140E093430160E770E0CE010E94EC
S1130AE0A007FE0101900020E9F731971083DE0191
S1130AF00D900020E9F7119783E1EFEDF0E001900C
S1130B000D928A95E1F7FE0101900020E9F73197F3
S1130B10E056F140E09341016AE670E0CE010E94A4
S1130B20A007FE0101900020E9F731971083DE0150
S1130B300D900020E9F7119785E1E2EFF0E00190D4
S1130B400D928A95E1F7FE0101900020E9F73197B3
S1130B50E056F140E093420164E670E0CE010E9469
S1130B60A007FE0101900020E9F731971083DE0110
S1130B700D900020E9F7119789E2E4E9F0E0019093
S1130B800D928A95E1F7FE0101900020E9F7319773
S1130B901083FE0101900020E9F73197108309903A
S1130BA00020E9F72197C056D140D0934905C0935E
S1130BB04805DF91CF911F910895CF93DF93E09182
S1130BC04501A9E5B1E08C91CE2FD0E0C05ADE4FAB
S1130BD0982F92959F70905D9883C1E0CE0FD0E0DE
S1130BE0C05ADE4F8F70805D888311968C91119767
S1130BF0C3E0CE0FD0E0C05ADE4F982F92959F707D
S1130C00905D9883C4E0CE0FD0E0C05ADE4F8F7061
S1130C10805D888312968C911297C6E0CE0FD0E047
S1130C20C05ADE4F982F92959F70905D9883E95F2C
S1130C30F0E0E05AFE4F8F70805D8083E0914601C2
S1130C4014968C911497CE2FD0E0C05ADE4F982F73
S1130C5092959F70905D9883C1E0CE0FD0E0C05A0A
S1130C60DE4F8F70805D888315968C911597C3E055
S1130C70CE0FD0E0C05ADE4F982F92959F70905DB2
S1130C809883C4E0CE0FD0E0C05ADE4F8F70805DF1
S1130C908883C6E0CE0FD0E0C05ADE4F82E388835B
S1130CA0C7E0CE0FD0E0C05ADE4F80E388831696AB
S1130CB08C91A8E0AE0FB0E0A05ABE4F982F929549
S1130CC09F70905D9C93E75FF0E0E05AFE4F8F7059
S1130CD0805D8083DF91CF910895CF93DF93C5E545
S1130CE0D1E04AE064E670E0888199810E94AB0714
S1130CF04AE06AE670E08A819B810E94AB078881A2
S1130D0099818436910588F44091420150E022E0B3
S1130D1064E670E080E691E00E942707E0914201DA
S1130D20F0E0E05AFE4F12820AC04091420150E0C6
S1130D3023E064E670E080E691E00E94270780915A
S1130D405701909158018436910588F440914101EE
S1130D5050E022E06AE670E080E691E00E94270716
S1130D60E0914101F0E0E05AFE4F12820AC0409146
S1130D70410150E023E06AE670E080E691E00E94E1
S1130D802707C0E5D1E08A814AE064E770E090E09B
S1130D900E94AB0788814AE060E770E090E00E941F
S1130DA0AB074091440150E022E064E770E080E644
S1130DB091E00E9427074091430150E022E060E760
S1130DC070E080E691E00E9427070E94DD05DF9134
S1130DD0CF91089581E00E9477020E94810280ED04
S1130DE00E948A0287E00E948A0280E00E948A02AE
S1130DF00E9487020895CF93DF93EC010E94810241
S1130E0080ED0E948A0280E00E948A020E9487028A
S1130E100E94810281ED0E948A020E9491028883CD
S1130E200E94910289830E9491028A830E94910206
S1130E308B830E9491028C830E9491028D830E9475
S1130E4098028E830E948702DF91CF910895222316
S1130E5079F0FB01DC01A40FB51F215030E02F5FB6
S1130E603F4F620F731F81918D93E617F707D9F7F0
S1130E70089580914801813049F48CB59DB59093D3
S1130E804A018093490181E08093470180914801A0
S1130E90811105C081E0809348011DBC1CBC0895EC
S1130EA0CF93DF93EC0161E088810E94410149E323
S1130EB057E061E089810E94F800DF91CF910895A5
S1130EC0CF93DF93EC01109248018EB581608EBD03
S1130ED089810E942A0161E088810E94C20185E023
S1130EE08A95F1F760E088810E94C20180914701F0
S1130EF08823E1F31092470189810E9435011EBCC9
S1130F002091490130914A01AFE9B6E40E9491076A
S1130F10929582958F7089279F708927DF91CF9151
S1130F200895A29FB001B39FC001A39F700D811DBE
S1130F301124911DB29F700D811D1124911D0895DE
S1130F40FB01DC010D900020E9F7119701900D924F
S1130F500020E1F70895BB274A3031F4992322F4A5
S1130F60BDE2909581959F4F0C94B707BB27FB0179
S1130F705527AA27880F991FAA1FA41710F0A41B8E
S1130F8083955051B9F7A05DAA3308F0A95DA193E8
S1130F90009779F7B111B1931192CB010C94D0075A
S1130FA0DC01FC01672F71917723E1F7329704C0CC
S1130FB07C916D9370836291AE17BF07C8F3089557
S1070FC0F894FFCFCF
S1130FC41D071C064E4E4E636D004E4E4E636D005F
S1130FD44E4E25004E4E430053533A4D4D3A484825
S1130FE4004E4E2F4E4E2F4E4E4E4E008813000090
S1130FF4010151042A2A2A2A2A2A2A2A2A2A2A2A9A
S11310042A2A2A2A2A2A2A2A2A2A2A2A2A2A2A2A38
S11310142A2A2A2A2A2A2A2A2A2A2A2A00446174B7
S1131024653A0054696D653A0054656D706572746F
S11310347572653A0048756D65646974793A005649
S11310446572746963616C5F44697374616E63652A
S11310543A00486F72697A6F6E74616C5F446973A5
S10B106474616E63653A00003B
S9030000FC
