:100000000C942A000C9447000C9447000C94470071
:100010000C9447000C9447000C9447000C94470044
:100020000C9447000C9447000C9447000C94490032
:100030000C9447000C9441020C941A020C94470053
:100040000C9409010C9447000C9447000C94470051
:100050000C94470011241FBECFE5D8E0DEBFCDBF12
:1000600010E0A0E6B0E0EAE6FAE002C005900D92EA
:10007000A836B107D9F720E0A8E6B0E001C01D928C
:10008000A239B207E1F70E942F030C9433050C94B8
:1000900000001F920F920FB60F9211248F939F931F
:1000A000EF93FF93CF93DF931F92CDB7DEB7198203
:1000B00089818330F8F4898190E0FC01EE0FFF1F05
:1000C000E80FF91FEE0FFF1FE159FF4F83818823CF
:1000D00059F0E981F0E0EE0FFF1FE759FF4F8081F3
:1000E000918101979183808389818F5F8983898141
:1000F000833008F389EF82BF0F90DF91CF91FF919A
:10010000EF919F918F910F900FBE0F901F901895B8
:1001100089B7816089BF83B7836083BF89EF82BF5E
:10012000109268000895EF92FF920F931F93CF9360
:10013000DF93EC0180916800282F30E048815981DD
:100140007901EE0CFF1CD701A20FB31FAA0FBB1F32
:10015000A159BF4F11965C934E939B8113969C932C
:100160001397870107591F4FF801518340839A81E4
:1001700012969C931297FD012C813D813583248337
:1001800091E0980F90936800FB018083DF91CF91FD
:100190001F910F91FF90EF900895AF92BF92CF9271
:1001A000DF92EF92FF920F931F93CF93DF93CFE6EF
:1001B000D0E009E610E00F2EF1E8EF2EF0E0FF2E80
:1001C000F02D6E018B81813099F45801D8018D9109
:1001D0009C91892B69F4EC81FD8109958A818111BB
:1001E00001C01B82F60180819181D5018D939C9382
:1001F00026960E5F1F4FCE15DF0519F7DF91CF91C1
:100200001F910F91FF90EF90DF90CF90BF90AF9034
:1002100008951F920F920FB60F9211242F933F93C0
:100220004F935F936F937F938F939F93AF93BF93FE
:10023000EF93FF9384B195B1E0918100F09182003A
:100240000995FF91EF91BF91AF919F918F917F9110
:100250006F915F914F913F912F910F900FBE0F9033
:100260001F90189516B817B827B130E4839FC001C6
:100270001124822B87B986B1482B46B920B730E2CA
:10028000639FC0011124822B80BF6111359A379A78
:10029000089597B1907E97B997B1892B87B9369A0F
:1002A000349BFECF84B195B108958830E8F4611194
:1002B0000EC04AB321E030E0B90102C0660F771FDB
:1002C0008A95E2F7CB01809584238ABB08954AB3CF
:1002D00021E030E0B90102C0660F771F8A95E2F78E
:1002E000CB01842B8ABB089598EF980F9830E8F4DF
:1002F00061110EC047B321E030E0B90102C0660FC2
:10030000771F9A95E2F7CB018095842387BB0895E8
:1003100047B321E030E0B90102C0660F771F9A951C
:10032000E2F7CB01842B87BB089590EF980F9830AC
:10033000E8F461110EC044B321E030E0B90102C01D
:10034000660F771F9A95E2F7CB018095842384BBD3
:10035000089544B321E030E0B90102C0660F771F71
:100360009A95E2F7CB01842B84BB0895885188309D
:10037000E0F461110EC041B321E030E0B90102C0E8
:10038000660F771F8A95E2F7CB018095842381BBA6
:10039000089541B321E030E0B90102C0660F771F34
:1003A0008A95E2F7CB01842B81BB0895883058F4FD
:1003B00029B330E0A90102C0559547958A95E2F727
:1003C000CA018170089528EF280F283048F486B3B9
:1003D00090E002C0959587952A95E2F7817008957F
:1003E00020EF280F283048F483B390E002C09595A1
:1003F00087952A95E2F78170089528EE280F283016
:1004000050F490B3892F90E002C0959587952A9576
:10041000E2F78170089580E00895E82FF0E06283AC
:10042000089560E088E10E94550161E089E10E9441
:10043000550108951F920F920FB60F9211242F931A
:100440003F934F935F936F937F938F939F93AF935C
:10045000BF93EF93FF93E0918500F091860009959B
:10046000FF91EF91BF91AF919F918F917F916F918C
:100470005F914F913F912F910F900FBE0F901F9062
:1004800018951F920F920FB60F9211242F933F933E
:100490004F935F936F937F938F939F93AF93BF938C
:1004A000EF93FF938CB1E0918300F0918400099564
:1004B000FF91EF91BF91AF919F918F917F916F913C
:1004C0005F914F913F912F910F900FBE0F901F9012
:1004D000189589E189B98AB188618AB980B5866839
:1004E00080BD08955D9BFECF8CB908950E9449019F
:1004F00090938C0080938B00BC0180E090E00E9480
:10050000380420E030EC4FE754E40E94970320E0E9
:1005100030E040EA50E40E94C60460938E0070937D
:100520008F0080939000909391000E940904862F81
:100530000895CF93DF931F92CDB7DEB780918700E8
:10054000843081F0809187000E94760289838981BE
:1005500090918A00981731F0898180938A0081E018
:10056000809388000F90DF91CF91089580E10E94E1
:10057000D601882319F0109287001EC081E10E94E5
:10058000D601882321F081E08093870015C082E1A5
:100590000E94D601882321F082E0809387000CC05E
:1005A00083E10E94D601882321F083E080938700B5
:1005B00003C084E080938700909187008091600061
:1005C000981739F081E080938900809187008093AB
:1005D000600008950E94B6020E9499020895CF9388
:1005E000DF9300D000D000D0CDB7DEB760E080E16F
:1005F0000E94550160E081E10E94550160E082E1C6
:100600000E94550160E083E10E9455010E941102A1
:1006100060E089E30E940D020E94690247E060E009
:1006200081E00E94320160E080E00E94880086E064
:10063000E1E6F0E0DE01119601900D928A95E1F776
:100640006DE870E0CE0101960E94930026960FB6E9
:10065000F894DEBF0FBECDBFDF91CF9108950E9409
:10066000EF0278940E94CD0080918800811104C02F
:10067000809189008823B1F310928800109289003C
:10068000809187008230A9F128F48823A1F081307D
:1006900009F1E8CF8330E1F1843021F780E00E9456
:1006A000720289EF90E00197F1F700C0000080E04E
:1006B0000E947202D7CF87E70E94720289EF90E012
:1006C0000197F1F700C0000080918A00805D0E94D0
:1006D0007202C8CF83E70E94720289EF90E001970F
:1006E000F1F700C0000080918A00805D0E947202D4
:1006F000B9CF84E60E94720289EF90E00197F1F78A
:1007000000C0000080918A00805D0E947202AACF22
:1007100081E60E94720289EF90E00197F1F700C034
:10072000000080918A00805D0E9472029BCF0E942F
:10073000AB030C948C040E94850458F00E947E0444
:1007400040F029F45F3F29F00C94750451110C948A
:10075000C0040C947B040E949D0468F39923B1F3B8
:10076000552391F3951B550BBB27AA2762177307D7
:10077000840738F09F5F5F4F220F331F441FAA1F6B
:10078000A9F335D00E2E3AF0E0E832D09150504027
:10079000E695001CCAF72BD0FE2F29D0660F771FD5
:1007A000881FBB1F261737074807AB07B0E809F0BB
:1007B000BB0B802DBF01FF2793585F4F3AF09E3F40
:1007C000510578F00C9475040C94C0045F3FE4F379
:1007D000983ED4F3869577956795B795F7959F5F83
:1007E000C9F7880F911D9695879597F90895E1E0CF
:1007F000660F771F881FBB1F621773078407BA072E
:1008000020F0621B730B840BBA0BEE1F88F7E09588
:1008100008950E94A50488F09F5798F0B92F992752
:10082000B751B0F0E1F0660F771F881F991F1AF0DB
:10083000BA95C9F714C0B13091F00E94BF04B1E07D
:1008400008950C94BF04672F782F8827B85F39F07C
:10085000B93FCCF3869577956795B395D9F73EF474
:1008600090958095709561957F4F8F4F9F4F08951C
:10087000E89409C097FB3EF490958095709561953A
:100880007F4F8F4F9F4F9923A9F0F92F96E9BB27F0
:100890009395F695879577956795B795F111F8CF6C
:1008A000FAF4BB0F11F460FF1BC06F5F7F4F8F4FD7
:1008B0009F4F16C0882311F096E911C0772321F0CD
:1008C0009EE8872F762F05C0662371F096E8862F65
:1008D00070E060E02AF09A95660F771F881FDAF7BC
:1008E000880F9695879597F9089597F99F6780E8FF
:1008F00070E060E008959FEF80EC089500240A9472
:100900001616170618060906089500240A941216EA
:100910001306140605060895092E0394000C11F41D
:10092000882352F0BB0F40F4BF2B11F460FF04C0CA
:100930006F5F7F4F8F4F9F4F089557FD9058440F23
:10094000551F59F05F3F71F04795880F97FB991F2E
:1009500061F09F3F79F087950895121613061406EB
:10096000551FF2CF4695F1DF08C016161706180678
:10097000991FF1CF86957105610508940895E89453
:10098000BB2766277727CB0197F908950E94D904E2
:100990000C948C040E947E0438F00E94850420F0A0
:1009A000952311F00C9475040C947B0411240C9481
:1009B000C0040E949D0470F3959FC1F3950F50E011
:1009C000551F629FF001729FBB27F00DB11D639F01
:1009D000AA27F00DB11DAA1F649F6627B00DA11DA7
:1009E000661F829F2227B00DA11D621F739FB00D4D
:1009F000A11D621F839FA00D611D221F749F3327BD
:100A0000A00D611D231F849F600D211D822F762F55
:100A10006A2F11249F5750409AF0F1F088234AF032
:100A2000EE0FFF1FBB1F661F771F881F915050409E
:100A3000A9F79E3F510580F00C9475040C94C004F6
:100A40005F3FE4F3983ED4F3869577956795B79525
:100A5000F795E7959F5FC1F7FE2B880F911D96953F
:0A0A6000879597F90895F894FFCFE9
:080A6A000428000101EA02006A
:00000001FF
