S01900004543555F4D4F544F525F434F4E54524F4C2E73726563BE
S11300000C942A000C9447000C9447000C9447006D
S11300100C9447000C9447000C9447000C94470040
S11300200C9447000C9447000C9447000C94470030
S11300300C9460010C9447000C9447000C94470006
S11300400C9447000C9447000C9447000C94470010
S11300500C94470011241FBECFE5D8E0DEBFCDBF0E
S113006010E0A0E6B0E0E8EEF5E002C005900D92E5
S1130070A636B107D9F720E0A6E6B0E001C01D928C
S1130080AD36B207E1F70E94D2010C94F2020C944F
S113009000008830E8F461110EC04AB321E030E07A
S11300A0B90102C0660F771F8A95E2F7CB018095EC
S11300B084238ABB08954AB321E030E0B90102C029
S11300C0660F771F8A95E2F7CB01842B8ABB0895CC
S11300D098EF980F9830E8F461110EC047B321E00F
S11300E030E0B90102C0660F771F9A95E2F7CB01A1
S11300F08095842387BB089547B321E030E0B9019C
S113010002C0660F771F9A95E2F7CB01842B87BB59
S1130110089590EF980F9830E8F461110EC044B33D
S113012021E030E0B90102C0660F771F9A95E2F72B
S1130130CB018095842384BB089544B321E030E04F
S1130140B90102C0660F771F9A95E2F7CB01842BA1
S113015084BB089588518830E0F461110EC041B326
S113016021E030E0B90102C0660F771F8A95E2F7FB
S1130170CB018095842381BB089541B321E030E015
S1130180B90102C0660F771F8A95E2F7CB01842B71
S113019081BB0895E82FF0E0618308958830E8F486
S11301A061110EC04BB321E030E0B90102C0660F0B
S11301B0771F8A95E2F7CB01809584238BBB089542
S11301C04BB321E030E0B90102C0660F771F8A9576
S11301D0E2F7CB01842B8BBB089598EF980F9830EE
S11301E0E8F461110EC048B321E030E0B90102C067
S11301F0660F771F9A95E2F7CB018095842388BB1D
S1130200089548B321E030E0B90102C0660F771FBA
S11302109A95E2F7CB01842B88BB089590EF980F51
S11302209830E8F461110EC045B321E030E0B90123
S113023002C0660F771F9A95E2F7CB01809584235D
S113024085BB089545B321E030E0B90102C0660FD3
S1130250771F9A95E2F7CB01842B85BB08958851CB
S11302608830E0F461110EC042B321E030E0B901FE
S113027002C0660F771F8A95E2F7CB01809584232D
S113028082BB089542B321E030E0B90102C0660F99
S1130290771F8A95E2F7CB01842B82BB089560E037
S11302A08CE00E94490060E08DE00E94490061E01A
S11302B08EE00E94490060E08FE00E9449000895AA
S11302C01F920F920FB60F9211242F933F934F93C7
S11302D05F936F937F938F939F93AF93BF93EF93AA
S11302E0FF938FB1E0916600F09167000995FF914B
S11302F0EF91BF91AF919F918F917F916F915F919A
S11303004F913F912F910F900FBE0F901F90189512
S1130310FC011DB82DB18581822B908120E8929F2C
S1130320A0011124282F242B918130E2939FC00136
S11303301124822B928140E1949F90011124282B57
S11303408381880F880F880F282B8481880F880F5A
S1130350282B2DB96E9A08959093670080936600B8
S1130360089590916800992341F091E090936B0077
S11303701092680080936A0008958093690081E078
S11303808093680008950E94FF010E94940280E611
S113039090E00E9488010E944F0181EB91E00E944D
S11303A0AC01089578940E94C301C9E6D0E080911D
S11303B06B008823E1F310926B008881843691F0FE
S11303C018F48136A1F018C0833739F08737A1F4C7
S11303D0898180530E941802EACF898180530E9448
S11303E03702E5CF898180530E945602E0CF89818C
S11303F080530E947502DBCF0E94FF01D8CF6FEFBC
S113040083E30E94CA0060E070E08BE00E94B102C6
S113041060E070E08CE10E94B10260E070E08DE188
S11304200E94B10260E070E08FE10E94B102089581
S1130430CF93C82F61E080E10E94CE0060E081E1AB
S11304400E94CE002CEE33E1C29FC001C39F900DE9
S1130450112464E670E00E94CA0260936C0060910B
S11304606C0070E08BE00E94B102CF910895CF93AD
S1130470C82F61E082E10E94CE0060E083E10E9427
S1130480CE002CEE33E1C29FC001C39F900D112416
S113049064E670E00E94CA0260936C0060916C0094
S11304A070E08CE10E94B102CF910895CF93C82FE0
S11304B061E084E10E94CE0060E085E10E94CE000C
S11304C02CEE33E1C29FC001C39F900D112464E65A
S11304D070E00E94CA0260936C0060916C0070E04E
S11304E08DE10E94B102CF910895CF93C82F61E0AE
S11304F086E10E94CE0060E087E10E94CE002CEEEF
S113050033E1C29FC001C39F900D112464E670E0E3
S11305100E94CA0260936C0060916C0070E08FE1ED
S11305200E94B102CF9108958BE683BF12BE61E0B1
S11305308BE00E94490081EA8FBD8BE08EBD1CBC1C
S11305401DBC61E08CE10E94490061E08DE10E94E4
S113055049008CE685BD14BC61E08FE10E9449002E
S113056008958C3159F018F48B3031F008958D31A1
S113057051F08F3169F008956CBF0895862F972F3D
S113058099BD88BD0895862F972F9BBD8ABD089578
S113059063BD089597FB072E16F4009407D077FDEA
S11305A009D00E94DE0207FC05D03EF490958195A7
S11305B09F4F0895709561957F4F0895AA1BBB1BAB
S11305C051E107C0AA1FBB1FA617B70710F0A61B4F
S11305D0B70B881F991F5A95A9F780959095BC0170
S10B05E0CD010895F894FFCF4A
S10905E801000000000107
S9030000FC
